:020000041000EA
:1000000000B5324B212058609868022188439860DF
:10001000D860186158612E4B002199600221596106
:100020000121F02299502B49196001219960352056
:1000300000F044F80222904214D00621196600F024
:1000400034F8196E01211966002018661A6600F04E
:100050002CF8196E196E196E052000F02FF8012189
:100060000842F9D1002199601B49196000215960AB
:100070001A491B48016001219960EB211966A021F2
:10008000196600F012F800219960164914480160C1
:100090000121996001BC002800D000471248134993
:1000A000086003C880F30888084703B5996A0420EC
:1000B0000142FBD001200142F8D103BD02B5186610
:1000C0001866FFF7F2FF186E186E02BD00000240BE
:1000D000000000180000070000035F00212200005C
:1000E000F4000018222000A00001001008ED00E03C
:1000F00000000000000000000000000074B24E7A12
:1001000000200420F7010010C3010010C5010010F9
:10011000C1010010C1010010C1010010C101001097
:10012000C1010010C1010010C1010010C701001081
:10013000C1010010C1010010C9010010CB01001065
:10014000CD010010CD010010CD010010CD01001037
:10015000CD010010CD010010CD010010CD01001027
:10016000CD010010CD010010CD010010CD01001017
:10017000CD010010CD010010CD010010CD01001007
:10018000CD010010CD010010CD010010CD010010F7
:10019000CD010010CD010010CD010010CD010010E7
:1001A000CD010010CD010010CD010010CD010010D7
:1001B000CD010010CD010010CD010010CD010010C7
:1001C00000BE00BE00BE00BE00BE00BE00F04BF888
:1001D000103800BEF2EB88717CFA00109CFA001017
:1001E0003402001090A31AE700202149086006C8D5
:1001F00081F3088810471F48006800282FD10DA4FC
:100200000ECC002902D000F012F8F9E71A491B4A77
:10021000002000E001C19142FCD1194988471949E9
:1002200088471949884700BEFDE701C901C29A42C3
:10023000FBD370479CFA0010C0000020E00E0020A5
:10024000BC0801100000042000000420BC080110BC
:1002500000100420001004200000000070470B482C
:1002600007F03EFA0047EFF30580C0B27047000088
:1002700008ED00E0000000D0E00E00204033002038
:10028000B55700100D030010D95800105756000044
:1002900006005250ABB36053D8F200100600525023
:1002A000861C0302E8F20010060052505422A29D60
:1002B000F4F2001005005250DE65F468BC0801102D
:1002C000F8B5C04610B5064C2378002B07D1054B76
:1002D000002B02D0044800E000BF0123237010BDB2
:1002E000E81100200000000070E40010044B10B57D
:1002F000002B03D00349044800E000BF10BDC046F6
:1003000000000000EC11002070E4001010B500F0B7
:10031000D7F800F005F800F013F8002010BDC04633
:10032000E12100B5490283B0002000F031FC042334
:10033000002200210093002003F076FF03B000BDEF
:1003400070B5FA256D0000F017F8001BA84205D320
:1003500000F012F80400002000F02AF900F014FD6B
:10036000F1E7C04610B508F027FB012010BDC046DC
:1003700010B504F03DFE10BD10B504F027FF0029B4
:1003800005D0FA220023920007F046FA10BDFA21A8
:10039000890007F0FFF9F9E710B500240460446014
:1003A0008360C2600161012010BDC046F0B5C64641
:1003B00004000D00904600B5002A24D000260168F4
:1003C00003E001362160B0451DD0481C0F00A16834
:1003D00007F0E0F963688B4219D02269002AF0D057
:1003E000002DEED0E0684743002807D00023D7193E
:1003F000EA5CFA54E06801339842F9D801362D18C6
:100400002160B045E1D1012080BCB846F0BD00209C
:10041000FAE7C046F0B54F464646D6460400C0B59A
:1004200091460E00002A35D00025416823699A467E
:10043000002B01D0002E1DD127688F4218D0A36851
:10044000481C1900984607F0A5F9013561604D4533
:1004500020D05346002BE9D18F4209D0481C414699
:1004600007F098F901356160A94513D98F42F5D19C
:10047000002010E00800E2685043002A08D0002362
:100480005044C25CF254E26801339A42F9D8616880
:10049000B618D1E70120E0BCBA46B146A846F0BD87
:1004A000C368026800695343C018704703000268BC
:1004B000416810B5501A996807F06CF9080010BD32
:1004C00010B5E1242402FFF74DFF00F095F901F08B
:1004D00021F900F061F801F0B9FA01F02FFB00F00A
:1004E0006FF82100002000F075F82100002001F0D5
:1004F0003FF91E4801F04AF91D491E4801F046F92E
:100500001D491E4801F042F9052005F07DFB010060
:100510001B4801F03BF9062005F076FB0100194865
:1005200001F034F9072005F06FFB0100164801F0D7
:100530002DF9082005F068FB0100144801F026F9A8
:10054000092005F061FB0100114801F01FF90420AA
:1005500005F05AFB01000F4801F018F903F042FEC4
:10056000002001F0FDF8012010BDC04670E400102D
:1005700088E4001094E40010ACE40010B8E400102B
:10058000D0E40010E4E40010F8E400100CE50010E2
:1005900020E5001034E50010192010B504F0EEF845
:1005A000D02380221B06920401205A629A6110BD5A
:1005B000002804D1D02380221B069204DA61704700
:1005C0000022034B01201A70E12212025A60704788
:1005D000042F00200023002805D10122034B1A72AA
:1005E00059601A70012318007047C046042F00207C
:1005F000030010B50020002B00D010BD0AF082F8D7
:10060000FBE7C04600B583B000236A46D3710028DB
:1006100006D1054B01219B68D01D98476B46DB79BD
:10062000180003B000BDC046D00400200B0010B578
:10063000002804D1034918000C681100A0470020CD
:1006400010BDC046D00400200EB4802110B5C3B048
:1006500045AB04CB4900040002A8019306F0F2FF69
:100660000100002C03D1054B02A81B68984700200D
:1006700043B010BC08BC03B01847C046D0040020EB
:10068000064B074A9A5A824205D98622D2009B58C5
:100690008000C05870470020FCE7C046AC24002012
:1006A0002C04000010B50300094A08000949515AFA
:1006B00099420AD98621C90052589B0099580BF0DB
:1006C000E1F943425841C0B210BD0020FCE7C046EA
:1006D000AC2400202C04000010B5084B084A9A5A9C
:1006E000824201D8002010BD8622D2009B58800093
:1006F0000021C0580CF0FCF9F5E7C046AC240020FE
:100700002C04000010B5084A08490300515A002083
:10071000994208D98621C90052589B009858002157
:1007200000220CF01FFB10BDAC2400202C040000A4
:10073000F0B5C646040000B5244B2549C25C807A5A
:10074000FFF782FF234B2449E25CA07AFFF77CFF8E
:10075000B9239B00E25C2149A07AFFF775FFA9232A
:100760009B00E2181E49A07AFFF76EFF9623FF3325
:10077000E2561C49A07AFFF767FFCB2398275B005E
:10078000E25C1949FF37A07AFFF75EFFE25DA07ACD
:100790001649FFF759FFE35D002B10D02600144BDC
:1007A000002598469936FF3633002A004146A07A44
:1007B000FFF74AFFE35D013543369D42F4DBA07A43
:1007C0000C49FFF741FF80BCB846F0BDE5020000D0
:1007D00048E50010E602000058E5001068E500104A
:1007E00078E5001088E5001098E50010A8E50010F5
:1007F000B8E5001008E50010CA200021B74B400002
:1008000010B519501981B648B64900225850B6485B
:1008100004315850B549B6481A745850B548043197
:1008200058503F20B4495A540239585240395A540A
:10083000BA2292009A5A0F2A01D9012010BD9100C4
:100840008918BB22AD488900920004688A189A185A
:100850001460007959181071BF2080008446A848A0
:10086000614408601178002900D18DE008006138EA
:10087000192801D82039C9B211705178002900D146
:1008800082E008006138192801D82039C9B25170B6
:100890009178002978D008006138192801D82039CA
:1008A000C9B29170D17800296ED00800613819283A
:1008B00000D82EE1D1701179002965D00800613887
:1008C000192800D82BE11171517900295CD008005A
:1008D0006138192800D828E151719179002953D045
:1008E00008006138192800D822E19171D1790029D6
:1008F0004AD008006138192800D822E1D171117A54
:10090000002941D008006138192800D81FE1117270
:10091000517A002938D008006138192800D81CE124
:100920005172917A00292FD008006138192800D817
:1009300016E19172D17A002926D008006138192871
:1009400000D816E1D172117B00291DD00800613852
:10095000192800D813E11173517B002914D0080025
:100960006138192800D810E15173917B00290BD010
:1009700008006138192801D82039C9B29173D17B98
:10098000002901D00021D173BA208000195A013109
:100990008AB21A520F2A00D94FE791008918BB2258
:1009A00058488900920004888A189A181480807820
:1009B00059189070BF2080008446534861440860F5
:1009C0001178002900D183E008006138192801D886
:1009D0002039C9B211705178002979D008006138E6
:1009E000192801D82039C9B25170917800296FD0E7
:1009F00008006138192801D82039C9B29170D1781E
:100A0000002965D008006138192800D87EE0D1702F
:100A1000117900295CD008006138192800D87BE0E2
:100A200011715179002953D008006138192879D9FA
:100A30005171917900294BD00800613819287AD971
:100A40009171D179002943D008006138192875D9EE
:100A5000D171117A00293BD008006138192873D967
:100A60001172517A002933D008006138192871D9E0
:100A70005172917A00292BD008006138192872D957
:100A80009172D17A002923D00800613819286DD9D4
:100A9000D172117B00291BD00800613819286BD94D
:100AA0001173517B002913D008006138192869D9C6
:100AB0005173917B00290BD008006138192801D8A7
:100AC0002039C9B29173D17B002901D00021D173A3
:100AD000BA2189005A5A01325A52AEE6AC2400209B
:100AE0000507001034040000D90600103C04000083
:100AF00081060010A5060010E6020000C8E50010FF
:100B0000110C0010D0E500106D0C00102039C9B296
:100B10007DE72039C9B2CDE62039C9B280E7203956
:100B2000C9B2D0E62039C9B282E72039C9B2D3E6CA
:100B30002039C9B2D9E62039C9B281E72039C9B212
:100B400086E72039C9B2D9E62039C9B288E7203909
:100B5000C9B2DCE62039C9B28AE72039C9B2DFE67A
:100B60002039C9B2E5E62039C9B289E72039C9B2CE
:100B70008EE72039C9B2E5E62039C9B290E72039BD
:100B8000C9B2E8E62039C9B292E72039C9B2EBE62A
:100B900010B5034C20706160FFF71CFD207210BD82
:100BA000AC24002010B5024B1878FFF721FD10BDD2
:100BB000AC24002010B5024B1878FFF723FD10BDC0
:100BC000AC240020030010B50A000349087819007E
:100BD000FFF72CFD10BDC046AC2400200FB48021CF
:100BE00010B582B0094C04AB04CB2000490001933E
:100BF00006F028FD2300113B020021001878FFF7C2
:100C000015FD02B010BC08BC04B01847BD2400207C
:100C1000F0B5C646BA27114B00B518009846FFF745
:100C2000DDFF0F48FFF7DAFF0E4EBF00F35B002B2E
:100C30000ED0BB2300249B00F5182800FFF7CEFF41
:100C40004046FFF7CBFFF35B01341435A342F4DCDD
:100C50000548FFF7C3FF80BCB846F0BDCCE40010E8
:100C6000D4E50010AC240020F4E50010F0B5DE4619
:100C700057464E464546E0B5038885B0002B6FD0F9
:100C80004468012B29D10022002120680CF06AF869
:100C900007003548FFF7A2FF10230093334BB946F6
:100CA0009A46334B002403269B46B8460CE0434645
:100CB00050465959FFF792FF33002340032B25D0AC
:100CC000009B01349C421ADAA5002642EFD143462C
:100CD00028485919FFF782FFE9E7002200216068E0
:100CE0000CF040F8002205000090002120680CF074
:100CF00039F807001C48FFF771FF002DCEDC05B066
:100D0000F0BCBB46B246A946A046F0BD1A48FFF764
:100D100065FF10234B4401934B46A1461C0004225F
:100D2000210003A807F0D6FC03AD04AF29780B001F
:100D3000203B5E2B10D81148FFF750FF0135AF4222
:100D4000F4D1019B0434A342E9D123000C484C4662
:100D50009946FFF743FFB3E75846FFF73FFFEDE73C
:100D60000848FFF73BFFCAE728E600103CE6001002
:100D70004CE6001030E6001044E6001048E6001093
:100D800050E6001014E60010F0B5D6464F46464631
:100D9000C0B5BC4C84B0257A002D06D1280004B023
:100DA000E0BCBA46B146A846F0BD2078FFF720FC6B
:100DB0000028F3D02078FFF725FC6B46D871237C00
:100DC0000600002B00D046E11B2800D1C0E100D96D
:100DD0006AE1082800D18CE10D2800D062E2AA4B1C
:100DE000E35C002B00D126E1CB235B00E65C0F33F4
:100DF00070018019400080192018FF339930432278
:100E0000E118FF3007F066FC9822FF32A35C032B49
:100E100001D80133A35496230122FF33E654933BB8
:100E2000FF3B01361E409433FF33E654023B8926D4
:100E3000E25400231432FF327600A350A353A923B7
:100E40009B009846914FA0443900404602AA0BF0FF
:100E5000DFFE002800D1D6E28D4B00269C46E04400
:100E6000330042469B00D05001363900002002AAD0
:100E7000B6B20BF0CDFE0028F2D147468923153FCC
:100E8000FF3F5B00FE52002E00D1D4E08148FFF707
:100E9000A5FE8A235B00FB581A78002A00D199E04E
:100EA00011006139192901D8203AD2B21A705A7842
:100EB000002A00D18EE011006139192901D8203AA9
:100EC000D2B25A709A78002A00D183E011006139B9
:100ED000192901D8203AD2B29A70DA78002A79D04A
:100EE00011006139192901D8203AD2B2DA701A7981
:100EF000002A6FD011006139192901D8203AD2B2E5
:100F00001A715A79002A65D011006139192901D85E
:100F1000203AD2B25A719A79002A5BD01100613915
:100F2000192901D8203AD2B29A71DA79002A51D01F
:100F300011006139192901D8203AD2B2DA711A7A2E
:100F4000002A47D011006139192901D8203AD2B2BC
:100F50001A725A7A002A3DD011006139192901D834
:100F6000203AD2B25A729A7A002A33D011006139EB
:100F7000192901D8203AD2B29A72DA7A002A29D0F5
:100F800011006139192901D8203AD2B2DA721A7BDC
:100F9000002A1FD011006139192901D8203AD2B294
:100FA0001A735A7B002A15D011006139192901D80A
:100FB000203AD2B25A739A7B002A0BD011006139C1
:100FC000192901D8203AD2B29A73DA7B002A01D0CB
:100FD0000022DA73BA239B00E35A9846002B2AD0EA
:100FE0008A235B00E35800269946BB239B00E71841
:100FF00003E00136143746451DDA390048460AF049
:1010000041FD0028F5D189235B00E35A224A013BC8
:10101000A352220086231932FF32DB00E250BF22A6
:10102000920094461C4BE018B3009B199B00E318F8
:1010300063441B6898470023134A1849A354184A6D
:10104000A354413AA3542078FFF7FEFA20781549BB
:10105000FFF7FAFA237C032B00D17CE00DD8012B9B
:1010600076D0022B01D103232374637A002B00D1A5
:1010700094E62000FFF75CFB90E6042BF5D10023FB
:101080002374F2E7AC240020E602000058E60010CA
:1010900070FEFFFFCCE400102C04000060E600109E
:1010A000E502000064E600107F2800D0FAE0D74B8C
:1010B000D74AE05CA65CB042D7D2321AD2B2012A3B
:1010C00009D0D44B013AC118013B9C4660446118D9
:1010D00020180DF0C5F90022CD4B013EF6B2E654C2
:1010E000423BA619F2542078CB49FFF7ADFA237C96
:1010F000B1E7C74AA65C002E00D133E1C349675C63
:10110000002FB2D0BE4205D1013EF6B2A654A119BD
:10111000423A8B54B74212D2A9239B00F918BF4B15
:10112000F21BF818D2B2611820180DF099F90022BC
:10113000B74B013EF6B2E654A619423BF254B34B0C
:10114000013FE7542078B649FFF77EFA237C82E717
:101150000223237489E7002323746B46DB79442B35
:1011600000D1ECE0432B00D1D4E0412B41D19823B6
:10117000FF33E35C002B34D0A44BE25C002A00D0A8
:1011800011E1A34BE25C002A00D007E1CA235B0017
:10119000E35C002B00D0EBE09623FF33E05698236E
:1011A000FF33E15C4018013806F0CCFA9623FF3398
:1011B000E1540A00FF210A405101891849008918A9
:1011C00061181033FF3399314322E018FF3107F0E3
:1011D00081FA8F4BE25C8D4BE2540022523BFF3B85
:1011E000E2549049904BCB181878FFF72DFA6B46D4
:1011F000DB79422B38D19823FF33E35C002B2BD0D3
:10120000824BE25C002A00D0D7E0814BE25C002AEE
:1012100000D0CDE096269823FF36A057FF33E15C3F
:10122000013006F08FFA0A00A155FF21A9230A40D8
:10123000510189184900891861189B00993143228E
:10124000E018FF3107F046FA714BE25C6F4BE25455
:101250000022523BFF3BE2547249734BCB18187883
:10126000FFF7F2F96B46DB79312B0BD1674E207813
:10127000A25D6E49FFF7E8F90023A35504332374F8
:101280006B46DB79342B00D0EFE6604F604EE25DB9
:10129000A35D9A4279D39A426ED85C4AA354042340
:1012A0002374E2E6B9225A4B92009846E35CA25CB2
:1012B0005F1C974200DBD8E6544A9246A25C9146F6
:1012C000934200D17EE000D8CFE652484A46A92199
:1012D00084469A1A8900D2B259186344981A891A16
:1012E000611820180DF0BCF8A9234A469B00A218EB
:1012F000D654474AFFB2A7544A46511C434AE719FD
:10130000A1540022FA54207832004949FFF79CF991
:10131000237CA0E63D493E48625C205C904200D8B8
:10132000A3E6013262546946424A8B720A812078F0
:10133000032202A9FFF77AF96B46DB7915E73349F7
:10134000625C002A00D190E6013A62546946394A4B
:101350008B720A812078032202A9FFF767F96B4696
:10136000DB79FFE6294BE75C002F00D17DE6E6E65E
:10137000CB235B00E05612E7D21A20782B4992B2B9
:10138000FFF762F9224BE35C87E79A1A92B2207862
:101390002949FFF759F9E25DA35D7CE720782749E9
:1013A000FFF752F9F2E620782049FFF74DF9E8E619
:1013B00020782249FFF748F92CE720781B49FFF7EE
:1013C00043F922E76B460122D91D2078FFF72EF959
:1013D0005346E25C6B46A921DE798900A3185E546E
:1013E00043460132D2B240469146E35C5246013355
:1013F000DBB223544846A0540020E21850544B4519
:1014000086D95F1C61E7A05315E6C046E5020000DF
:10141000E6020000A50200006CE60010A302000036
:1014200074E60010502700205CFDFFFF88E60010E6
:101430007CE600101B5B000098E6001090E60010B0
:10144000044B10B51878FFF7D3F843425841C0B2A7
:1014500010BDC046AC240020BA22F8B5634E9200FD
:10146000B25A03000F0000200F2A00D9F8BD9500E2
:10147000AD18BB22AD009200AC1834191900200041
:101480000AF044FBBF239B009C46751965442F60FE
:101490002378002B00D181E01A00613A192A01D883
:1014A000203BDBB223706378002B77D01A00613ABF
:1014B000192A01D8203BDBB26370A378002B6DD0D2
:1014C0001A00613A192A01D8203BDBB2A370E378F5
:1014D000002B63D01A00613A192A66D9E370237988
:1014E000002B5BD01A00613A192A61D92371637904
:1014F000002B53D01A00613A192A5CD96371A37981
:10150000002B4BD01A00613A192A57D9A371E379FD
:10151000002B43D01A00613A192A52D9E371237A79
:10152000002B3BD01A00613A192A4DD92372637AF5
:10153000002B33D01A00613A192A48D96372A37A72
:10154000002B2BD01A00613A192A43D9A372E37AEF
:10155000002B23D01A00613A192A3ED9E372237B6B
:10156000002B1BD01A00613A192A39D92373637BE7
:10157000002B13D01A00613A192A34D96373A37B64
:10158000002B0BD01A00613A192A01D8203BDBB29C
:10159000A373E37B002B01D00023E373BA229200F4
:1015A000B35A01200133B35260E7203BDBB295E729
:1015B000203BDBB29AE7203BDBB29FE7203BDBB26C
:1015C000A4E7203BDBB2A9E7203BDBB2AEE7203B40
:1015D000DBB2B3E7203BDBB2B8E7203BDBB2BDE7D1
:1015E000203BDBB2C2E7203BDBB2C7E7AC240020E4
:1015F000F8B503880600012B09D03948FFF7EEFA49
:101600003848FFF7EBFA3848FFF7E8FAF8BD002052
:10161000364973699847041E40D13388012BECD1B9
:101620000020334973699847002831D00025314F95
:101630000CE07B885C1BAB420CD0402C00D94024D2
:10164000BB6821005819FFF7BDFA2D19FFF7F8FE06
:101650000028EED13388012BD8D1002073692649A8
:1016600098470028D2D00025244E0CE073885C1BDC
:10167000AB42CBD0402C00D94024B368210058198C
:10168000FFF7A0FA2D19FFF7DBFE0028EED1BDE72A
:101690003388012B1CD0002CB8D1AEE7154D18486B
:1016A0002988FFF79BFA69881648FFF797FA1648CA
:1016B000FFF794FA114D15482988FFF78FFA6988CA
:1016C0001348FFF78BFA3388012B00D09EE7A7E77A
:1016D00000207369084998470028DCD0C3E7C0465A
:1016E000A0E60010ACE60010B8E600105CE90010BF
:1016F00014E70010A42D00201CE70010B02D0020DE
:10170000C4E60010D8E6001008E50010ECE6001072
:1017100000E70010802200210A4B0B48D20010B5D0
:1017200019605A609860094B09485A60094A196063
:101730009A600122084B09491A70FFF78DFE0120BB
:1017400010BDC046A42D0020A0170020B02D002001
:1017500024E70010A01B00203A330020F1150010F0
:10176000431E9841014B18707047C046300400205A
:10177000012210B5034B1870034B1A70FEF72AFFB5
:1017800010BDC0463D3300203B3300200FB4F0B500
:101790003B4B85B01B78002B04D105B0F0BC08BCD6
:1017A00004B018478021374E0BAB30000A9A49002D
:1017B000039305F047FF344B05001B78002B03D043
:1017C000324B1B78002B2AD1314B1B78002B2DD1AB
:1017D0002F0008372F4CE088A288030008335D19DA
:1017E000954204D900230020E380BA42D5D3A268F1
:1017F000238894463900284A6044009605F00EFF7D
:10180000238882B201332380E388A188D318E38040
:10181000638818188842C0DCD2186280BDE71F4B6D
:101820002A0031001878FEF701FFCDE71C4CE08854
:10183000A288030008335B1993421ED92F000023AE
:101840000837E380BA42C5D30020A26823889446B3
:101850003900114A6044009605F0E0FE238882B208
:1018600001332380E388A188D318E38063881818A4
:101870008842AFDCD2186280ACE72F000837E4E77B
:101880003A330020D02D00203B33002031040020CB
:1018900030040020B02D002028E700103D33002048
:1018A000A42D0020F8B5CE46474603880400002545
:1018B00080B5012B5FD0022B14D0032B00D181E027
:1018C000002D03D0C0BCB946B046F8BD5448FFF760
:1018D00085F901215348FFF781F901215248FFF7AB
:1018E0007DF9EFE70020514963699847002871D0DE
:1018F000A36801209847FF25C3B20540EE00012BE5
:1019000010D969E0D0231B065A68494B4948F3585F
:101910002900DA40130001221A40FFF75FF9642022
:10192000FEF726FDFFF78CFD0028EBD12388032B63
:10193000C8D100204049636998470028C2D0A368F5
:10194000012098470500A36802209847EBB2012BBD
:1019500051D8FF21C3B22940002B54D00122344B6F
:10196000CC00E5581B195B79AA40002B54D1D02339
:101970001B069A6141E00020304963699847051EC3
:101980001ED0D0272E4B2F4E98463F0614E0012341
:10199000994679683000490E1940FFF71FF94B4608
:1019A00079683000490B1940FFF718F94046FFF7F6
:1019B00015F96420FEF7DCFCFFF742FD0028E6D1B4
:1019C000238878E700201C4963699847002800D1E4
:1019D00076E7B4E7238870E7164E07E03000002270
:1019E0002900FFF7FBF86420FEF7C2FCFFF728FD93
:1019F0000028F3D19AE7FF212940FF220240124834
:101A0000FFF7ECF85EE70122094BCC00E5581B1903
:101A10009B79AA40002BAAD0D0231B065A61ECE781
:101A200074E7001080E7001094E700103CE7001016
:101A3000D0E7001044E7001058E7001030E700102E
:101A400008E5001038E7001060E70010F8B5102333
:101A50004746CE469946264BD02680B51925012704
:101A60009846244C3606A144280002F087FE2379CC
:101A7000052B27D842469B00D3589F4600220121C0
:101A8000280002F063FE3B00AB407362E279002A5B
:101A900008D06279002A08D10834B3614C4508D0D7
:101AA0002568E1E7A279002AF6D0083473614C4535
:101AB000F6D111491148FFF7CFFC0120C0BCB9464F
:101AC000B046F8BD3B00E279AB40E0E701220021DF
:101AD00001E000220121280002F038FE3B00AB406B
:101AE000B362D3E700220021F5E701220021C7E716
:101AF000B8E70010D0E70010A5180010B0E70010FC
:101B000001280DD801220C4BC000002909D0C15872
:101B1000181843798A40002B09D0D0231B065A613C
:101B20007047C158181883798A40002BF5D1D0230B
:101B30001B069A61F4E7C046D0E700100022024B72
:101B40000249012006C37047E02E00200001000872
:101B5000002310B5002801D0180010BD0A4C0B4816
:101B60000B49A06009F0DAFB01210A2002F0D6FD42
:101B700001210B2002F0D2FD01210C2002F0CEFD4C
:101B800001232370E8E7C046E02E00200000044057
:101B900080969800F0B54546DE4657464E46E0B57D
:101BA00045001C002D18614BAD009B465B5D8846CF
:101BB00091469A4683B0002B09D100239A4650469D
:101BC00003B0F0BCBB46B246A946A046F0BDFEF746
:101BD000D3FB43460700002B30D04B462600002B9A
:101BE00059D000235D440093019323E0002C0ED0D4
:101BF000AB68DA6892070AD522000832964206D20C
:101C000042460199013C525C9A604B1C0193002EA4
:101C10000AD0AB68DA68520706D54946009A9B6835
:101C2000013E8B54531C0093FEF7A6FB0C9BC01B7C
:101C30008342C2D933002343D8D1C0E74B462600A4
:101C4000002B51D000235D44984620E0002C0AD0A0
:101C5000AB68DA68920706D522000832964202D2B3
:101C6000FF22013C9A60002E0BD0AB68DA68520765
:101C700007D541464A469B68013E535401239C4682
:101C8000E044FEF779FB0C9BC01B834295D93300DF
:101C90002343DBD193E700235D44994620E0002CE9
:101CA0000FD0AB68DA6892070BD522000832964253
:101CB00007D249464246525C013C9A6001239C4649
:101CC000E144002E05D0AB68DA68520701D59B6865
:101CD000013EFEF751FB0C9BC01B834200D86CE712
:101CE00033002343DBD16AE75D441BE0002C0AD0BC
:101CF000AB68DA68920706D522000832B24202D9F0
:101D0000FF22013C9A60002E05D0AB68DA685207CA
:101D100001D59B68013EFEF72FFB0C9BC01B984230
:101D200000D34AE733002343E0D148E7E02E002008
:101D300043001818034A8000835C002B01D0101860
:101D400041607047E02E00207047C046F0B5D6468F
:101D500046464F460523C0B584B003AC4501237009
:101D60000A33002101206370EDB2D133A370E57016
:101D7000FFF7C6FE0A232100009300220020063B45
:101D8000FFF708FF012106000120FFF7B9FE002E32
:101D900005D104B0E0BCBA46B146A846F0BDFEF796
:101DA000EBFA164B060098461F230A279946FEF7C2
:101DB000E3FA801B0928ECD8434600210120238048
:101DC000FFF79EFE03232200210000200097FFF76B
:101DD000E1FE00280AD04A46A378012193439A469F
:101DE0000120FFF78DFE5545E1D1D2E70121012009
:101DF000FFF786FE002DDAD1CBE7C046030E0000C8
:101E0000F0B54546DE4657464E460523E0B585B05B
:101E100003AC4D0123700A33EDB26370D133A3706C
:101E2000E570002812D00A23002200932100002030
:101E3000063BFFF7AFFE061E44D10026300005B07A
:101E4000F0BCBB46B246A946A046F0BD0021013019
:101E5000FFF756FE0A232100009300220020063BD4
:101E6000FFF798FE012106000120FFF749FE002E32
:101E7000E3D0FEF781FA294B80469A460A23994619
:101E8000FEF77AFA4346C01A0928D6D853460021ED
:101E900001202380FFF734FE4B46220000932100EF
:101EA00003230020FFF776FE071E2FD01F22A37802
:101EB000012193439B460120FFF722FE5D45DFD1C0
:101EC0003E00BBE7FEF758FA144B070099460A2379
:101ED000984615339A46FEF74FFAC01B0928ACD82E
:101EE0004B46238043462200009321000323002019
:101EF000FFF750FE002806D05246A37893439D4238
:101F0000E9D106009AE7002DE5D197E701210120EC
:101F1000FFF7F6FD002DB3D190E7C046030E000099
:101F2000F0B54E4645465746DE460023E0B59A4694
:101F30009946984685B0654B03AC05000E0023809A
:101F4000002857D00A232200009321000020073BDD
:101F5000FFF720FE00284AD10027042E08D85C4B4A
:101F60009B5D9A465B4B9B5D99465B4B9B5D9846A0
:101F700004212800FFF744FF0223237028336370F5
:101F80005346A3700A2321009A46002200930020A2
:101F9000073BFFF7FFFD022323709B462733637047
:101FA0004B46A37053462100002200930020073BBC
:101FB000FFF7F0FD5B462370263363704346A37042
:101FC00053462100009300220020073BFFF7E2FD6B
:101FD0000400424B390028005E55FFF711FF200036
:101FE00005B0F0BCBB46B246A946A046F0BDA778F6
:101FF0007F09B2E700210120FFF782FD0A232200BA
:10200000009321000020073BFFF7C4FD002859D1B1
:10201000002701210120FFF773FD042E08D82C4B67
:102020009B5D9A462B4B9B5D99462B4B9B5D98463F
:1020300004210020FFF7E4FE02232370283363709D
:1020400053460021A3700120FFF75AFD0A23002206
:102050009A46210000930020073BFFF79BFD0121DA
:102060000120FFF74DFD02239B4623702733637049
:102070004B460021A3700120FFF742FD534600228A
:10208000210000930020073BFFF784FD0121012080
:10209000FFF736FD5B46237026336370434600210D
:1020A000A3700120FFF72CFD53462100009300226E
:1020B000073B0020FFF76EFD012104000120FFF720
:1020C0001FFD86E7A7787F09A3E7C046030E00003F
:1020D00000EE001008EE001010EE0010942D00200D
:1020E000F0B5DE464E4645465746E0B500208DB079
:1020F000FFF72EFDBD4903900020FFF719FE0121D7
:102100000120FFF7FDFCC0230A2408AE00210120B6
:102110003370FFF7F5FC01233200310000200094FA
:10212000FFF738FD050001210120FFF7E9FC0A2037
:10213000FEF71EF9AE4B1D70002D00D142E10E22BC
:102140000021300006F0C0FAAA4B06AD00210120A4
:102150002B80FFF7D5FC02232A00290000940020E1
:10216000FFF718FD00220E23310000940020FFF736
:1021700011FD01210120FFF7C3FC9F4B002101202D
:102180002B80FFF7BDFC02232A00290000940020C9
:10219000FFF700FD00220E23310000940020FFF71E
:1021A000F9FC01210120FFF7ABFC944B0021012039
:1021B0002B80FFF7A5FC02232A00290000940020B1
:1021C000FFF7E8FC3100002600220E2300940020D7
:1021D000FFF7E0FC01210120FFF792FC884B002172
:1021E00001202B80AE70FFF78BFC00220323290017
:1021F00000940020FFF7CEFC01210120FFF780FCB6
:10220000804B002101202B80AE70FFF779FC00226B
:102210000323290000940020FFF7BCFC01210120CA
:10222000FFF76EFC784B00212B80A3230120AB70BD
:10223000FFF766FC00220323290000940020FFF72B
:10224000A9FC01210120FFF75BFC704B002101205C
:102250000693FFF755FC0022042329000094002078
:10226000FFF798FC01210120FFF74AFC684B002191
:1022700001200693FFF744FC042300222900009468
:102280000020FFF787FC01210120FFF739FC614B9B
:102290002F009A460A239846083B9B4604AC40E030
:1022A000002305935C4B002101202380FFF728FCCD
:1022B000434622000093210003230020FFF76AFC1D
:1022C00000239946002802D0A3785B099946012192
:1022D0000120FFF715FC0420FFF738FD5A463B7834
:1022E0000021012022706370FFF70AFC43462200A0
:1022F0002100009300200223FFF74CFC43460022FC
:10230000009305A904230020FFF744FC01210120CC
:10231000FFF7F6FB01364846FFF718FD0137062E9A
:102320000BD053461B682B6053469B88AB80012E15
:10233000B6D180231B010593B4E780231B01994686
:1023400002232024984604364B460693324B02AAB9
:10235000938100210120FFF7D3FB05AA032311007D
:1023600000200096FFF716FC0027002802D002ABE1
:102370009F7B7F0901210120FFF7C2FB0420FFF7AB
:10238000E5FC424602AB1A735C7300210120FFF7A3
:10239000B7FB05AA1100022300200096FFF7FAFB05
:1023A00004230022290000200096FFF7F3FB0434E9
:1023B00001210120FFF7A4FBE4B23800FFF7C6FCBF
:1023C000282CC1D10020FFF7C1FC03210020FFF71A
:1023D000A7FD12491248FFF73FF803980DB0F0BC73
:1023E000BB46B246A946A046F0BDC046491D0010F6
:1023F000982D002002300000024000000250000032
:102400000260000002700000022B000005606704FB
:1024100005706701F8ED0010030E00009D2D0010FF
:10242000E0E7001010B584B06A46164B938100288F
:1024300010D00A2303AA009311000020073BFFF7E6
:10244000A9FB0024002802D1200004B010BD6B4677
:102450009C7BF9E700210130FFF752FB0A2303AA16
:10246000009311000020073BFFF794FB002805D1E3
:10247000002401210120FFF743FBE5E76B469C7B2D
:10248000F7E7C046032D0000F0B557464546DE4647
:102490004E46E0B580460F00030089B0002800D109
:1024A00081E003239A4607339946023B00269B4668
:1024B00004AC5346350023704B463035EDB26570A1
:1024C00022000093210003230020FFF763FB002874
:1024D00057D1BA783B88002A5DD1D9085B012170B9
:1024E0006370E270A2701520FB78391D1A00237109
:1024F0006844994606F0EEF8052303AF9C46033B7B
:102500003B7043463136E1447E70002B00D07AE0C8
:102510000A2600210120FFF7F3FA02233A003900CE
:1025200000200096FFF736FB00224B4621000020DA
:102530000096FFF72FFB01210120FFF7E1FA0523A9
:102540003B70033300210120BB70FB707D70FFF7EF
:10255000D7FA39000423002200200096FFF71AFB67
:10256000012104000120FFF7CBFA002C00D07BE012
:102570000024200009B0F0BCBB46B246A946A046E4
:10258000F0BD5A46A3781A42A3D01036F6B2302EC8
:1025900000D08EE7ECE7E3701B0AA370082363709A
:1025A000002323709FE703339B46073330259A4669
:1025B00004AC5B460021012023706570FFF7A0FA90
:1025C0002E005346303E00932200032321000020BA
:1025D000F6B2FFF7DFFA002810D00822A378012115
:1025E0001A4091460120FFF78BFA4B46002B00D191
:1025F0006FE71035EDB2602DDBD1B9E70121013075
:10260000FFF77EFA65E70A2602233A003900002028
:102610000096FFF7BFFA21004B46002200200096EB
:10262000FFF7B8FA05233B700333BB70FB707D7076
:102630000022390000200096043BFFF7ABFA041E8D
:1026400096D003237D703B703A003900002000963D
:10265000FFF7A0FA002800D18BE77024B878044077
:1026600063425C41E4B284E70323002101203B7014
:102670007D70FFF745FA03233A00390000200096E9
:10268000FFF788FA002805D07024BB781C4063420D
:102690005C41E4B201210120FFF732FA69E7C0464C
:1026A000F0B54746CE46A02380B589B004AC0700FC
:1026B0000D002380002863D00A232200009321000C
:1026C0000020083BFFF766FA002806D1002420000E
:1026D00009B0C0BCB946B046F0BD6378DA0700D493
:1026E00087E0564B03AE3380002398460A23994671
:1026F0003200310000930020083BFFF74BFA4B46B5
:1027000022000093210000200333FFF743FA617891
:1027100023784A09DB009B180022AA700A070BD510
:1027200003229B000A40D318A2781B02D218E37838
:1027300012029B180122AA700F2221790A40082A4E
:10274000C4D82B80EA70002A04D01521281D6944C2
:1027500005F0C0FF052342463370273373702B3BCF
:102760009340B3700023F370002F54D00A2300224B
:10277000009331000020063BFFF70CFA0400A6E7A7
:1027800000210120FFF7BCF90A2322000093210059
:102790000020083BFFF7FEF9002825D066780121CC
:1027A0000120FFF7ADF9F3072CD5244B03AE33809E
:1027B0000023984600210120FFF7A2F90A23994639
:1027C0003200310000930020083BFFF7E3F94B464D
:1027D00021000093220003330020FFF7DBF90121E1
:1027E0000120FFF78DF992E701210120FFF788F919
:1027F0006CE79B0700D469E7114B03AE33800123DC
:10280000984673E7B30700D460E70D4B03AE3380FF
:1028100001239846CEE700210120FFF771F90A2332
:10282000310000930022063B0020FFF7B3F901219D
:1028300004000120FFF764F949E7C0460361000086
:102840000371000010B584B06A46164B93810028CE
:1028500010D00A2303AA009311000020073BFFF7C2
:1028600099F90024002802D1200004B010BD6B4665
:102870009C7BF9E700210130FFF742F90A2303AA04
:10288000009311000020073BFFF784F9002805D1D1
:10289000002401210120FFF733F9E5E76B469C7B1B
:1028A000F7E7C046031D000010B584B06A46164B1A
:1028B0009381002810D00A2303AA0093110000205E
:1028C000073BFFF767F90024002802D1200004B07D
:1028D00010BD6B469C7BF9E700210130FFF710F932
:1028E0000A2303AA009311000020073BFFF752F9C7
:1028F000002805D1002401210120FFF701F9E5E7B7
:102900006B469C7BF7E7C046031C0000F0B5CE4643
:10291000474680B5D64B85B003AC051E238000D159
:1029200070E10A232200009321000020073BFFF7FB
:1029300031F9002800D1AEE0A6787609CD4BCE481B
:1029400029005A5DFEF74AF9CC48FEF747F9002EF8
:1029500000D108E2012E00D185E1022E00D17EE1F6
:10296000032E00D0F4E1C648FEF738F9C548FEF75B
:1029700035F9C54B2380002D00D09DE000210120BA
:10298000FFF7BEF80A232200009321000020073B36
:10299000FFF700F9002800D053E10026FA350121A5
:1029A0000120FFF7ADF8B84B002101202380FFF78D
:1029B000A7F80A232200009321000020073BFFF71D
:1029C000E9F80027002801D0A778BF0901210120DC
:1029D000FFF796F80821AD48FEF700F93100AC4842
:1029E000FEF7FCF8FA202900800004F0D3FE29004D
:1029F0000200A848FEF7F2F83900A74FA748FEF7F3
:102A0000EDF8002101202780FFF77AF80A23220041
:102A10009946009321000020073BFFF7BBF80028F0
:102A200000D1BDE00726A07801210640731C0120DB
:102A30009846FFF765F8002101202780FFF760F82E
:102A40004B46220000932100032300200236FFF7AB
:102A5000A1F8002800D1BAE0A77801210120FFF7F2
:102A60004FF88F4B002101202380FFF749F80A23FC
:102A7000BF067F0F0093220021000020073B013793
:102A8000FFF788F8002800D06BE101240121012024
:102A9000FFF736F820E1774B29005A5D7648FEF7BC
:102AA0009DF87648FEF79AF87E48FEF797F8754845
:102AB000FEF794F8744B23800A2322000093210030
:102AC0000020073BFFF766F8002800D0AEE0FA25AB
:102AD00000266D4B220023800A2321000093002052
:102AE000073BFFF757F80027002801D0A778BF0958
:102AF00008216648FEF772F831006548FEF76EF867
:102B0000FA202900800004F045FE290002006148F7
:102B1000FEF764F839006148FEF760F80A235E4F5B
:102B2000994627802200009321000020073BFFF7F1
:102B300031F8002812D00726A07827800640731CA1
:102B400098464B46220000932100032300200236C2
:102B5000FFF720F8002810D0A778ADE04B4627807B
:102B600022000093210003230020FFF713F8002820
:102B700000D09DE0012302269846494B2200238085
:102B80000A23210000930020073BFFF703F80028E9
:102B900000D1D2E00127A37807241C4001349BE038
:102BA00001210120FEF7ACFF002101202780FEF764
:102BB000A7FF4B4622000093210003230020FEF7CD
:102BC000E9FF002800D0BEE001230226984601213B
:102BD0000120FEF795FF324B002101202380FEF7F4
:102BE0008FFF0A232200009321000020073BFEF7FD
:102BF000D1FF002800D1A3E00127A37807241C40BF
:102C0000013443E700210120FEF77AFF0A23220066
:102C1000009321000020073BFEF7BCFF00281BD1DA
:102C2000002601210120FEF76BFF87E63F26A378EF
:102C30001E40721C53019B1A9D00AD182D01ED081A
:102C400047E73F26A3781E40721C53019B1A9D0044
:102C5000AD182D01ED08A2E6A6787609E1E7124845
:102C6000FDF7BCFF82E61148FDF7B8FF7EE6C046DF
:102C7000030E0000982D0020E8E70010FCE700108C
:102C80002CE8001008E50010032A000010E90010ED
:102C900020E9001030E900100329000048E9001085
:102CA0000328000010E8001020E8001018E80010C9
:102CB000012302269846A7782D4BBF0623800A23BE
:102CC0007F0F0093220021000020073B0137FEF711
:102CD00061FF002843D10124B146B9444B461E1977
:102CE000754301212348FDF779FF41462248FDF74E
:102CF00075FF39002148FDF771FF21002048FDF7DD
:102D00006DFF2A0031001F48FDF768FF4B46642025
:102D10003100584304F03EFD01001B48FDF75EFF03
:102D200029001A4804F036FD01001948FDF756FF46
:102D300005B0C0BCB946B046F0BD01240127CBE7C1
:102D400001240127A2E6012302269846A77884E6FB
:102D5000042E00D00AE60F48FDF740FF06E6A378F0
:102D60001AE7A3784AE70C48FDF738FFFEE5C046AE
:102D70000328000048E8001064E8001080E8001014
:102D80009CE80010B8E80010D8E8001040420F009E
:102D9000F4E8001038E8001010E80010F0B55746CD
:102DA0004E46DE464546E0B50388824600268DB095
:102DB000022B00D17CE2042B00D10BE2032B00D1CB
:102DC0002AE1022B50D0012B23D0002E1AD1002152
:102DD000DD48FDF703FF0021DC48FDF7FFFE002181
:102DE000DB48FDF7FBFE0021DA48FDF7F7FE002186
:102DF000D948FDF7F3FED9480021FDF7EFFED8488A
:102E0000FDF7ECFE0DB0F0BCBB46B246A946A046AD
:102E1000F0BD534600205B69D24998470028D4D0C2
:102E2000FFF75EF9D04B00211B78002B01D100F099
:102E300041FECE48FDF7D2FEE4E700213000FEF768
:102E4000DFFF002800D169E1534602201B69984743
:102E5000FF2102002940C648FDF7C0FE53461B88EB
:102E6000022B00D064E1260053460120C1495B6972
:102E70009847002801D100F093FC534600209B683E
:102E80009847C3B298460423029300239B46FF331E
:102E90000340B94F06AC039303E0FDF783FE00281F
:102EA00021D121004046FFF7FBFB0028F5D0A17897
:102EB000E3782288B14800910399FDF78FFEE3780B
:102EC0000025002B08D0631919793800FDF786FE1C
:102ED000E3780135AB42F6DCA948FDF77FFEFDF74C
:102EE00061FE0028DDD0FDF765FE202801D800F046
:102EF00060FC242309ADFF332B80A24BA0486B80DC
:102F00005B460133DBB29B462B715B006B71029B0E
:102F10005A46AB715B00EB710F23134012019B18F3
:102F20002B725A461E23134052019B186B725A464D
:102F30003C23134092019B18AB7278225B461A40E7
:102F4000DB019B18EB72FDF749FE29000020FFF71B
:102F50009BFA0021002801D100F026FC8A48FDF7E9
:102F60003DFE00218948FDF739FEA02302AA938186
:102F700000210120FEF7C4FD0A2305AA00931100D9
:102F80000020083BFEF706FE0025002801D002AB1A
:102F90005D7B01210120FEF7B3FD7D4B082699469C
:102FA00007E048466D00013EFDF718FEEDB2002E29
:102FB0000AD06BB2002BF4DA76486D00013EFDF7C3
:102FC0000DFEEDB2002EF4D16D48FDF707FE724BF9
:102FD00002AA938100210120FEF792FD0A2305AA8F
:102FE000009311000020073BFEF7D4FD00250028C8
:102FF00001D002AB9D7B01210120FEF781FD2A005B
:1030000000216648FDF7EAFD5D48FDF7E7FD029BFC
:103010000433DBB2029344E75346012060495B6905
:103020009847041E44D0534600209B689847534657
:103030000500C6B25B4902205B699847002828D189
:103040005346022058495B699847002801D001F097
:1030500077F85346022055495B699847002801D00C
:1030600001F080F85346022051495B6998470028D7
:1030700001D000F086FD534602204E495B69984717
:10308000002801D101F074F804213000FEF748FF58
:1030900003E000213000FEF743FF534602201B6986
:1030A0009847FF21020029404348FDF797FD26007D
:1030B00053461B88032B00D083E6534601203F492B
:1030C0005B699847041E00D166E3534600209B6865
:1030D000984753460500C6B2394902205B699847B4
:1030E000002800D0A9E65346022036495B6998477C
:1030F000002801D001F02AF85346022032495B69CA
:103100009847002801D001F027F8534602202F49A4
:103110005B699847002801D000F02DFDFF212C4865
:103120002940FDF75BFD53461B88022B00D19AE630
:10313000012B00D066E6534600205B690949984799
:10314000002800D15EE66BE6E4EC0010FCEC001019
:1031500018ED001040ED001078ED0010B4ED0010F7
:10316000CCED0010B8EC0010982D0020C0EC001041
:1031700004EC00102CEC00105CEC001034EC00109F
:1031800008E500100108000064EC00108CEC001051
:10319000DCF20010B4E40010032D0000A0EC0010DD
:1031A00078EB001084EB00108CEB001094EB001017
:1031B0009CEB0010A4EB0010C0EB0010D4EB00104F
:1031C000E0EB0010E8EB0010F4EB0010FCEB00105B
:1031D00018EC00105346012031495B6998470028DC
:1031E0005AD0534600209B689847C3B2994653462D
:1031F00080469B6802209847534605009B68032041
:103200009847FF2704004146264839402404FDF72B
:10321000E5FC230C0293002C3ED04B462F40002BA4
:1032200001D000F017FCB8460A3337009B464646EB
:1032300009AD06AC0DE0310022781B48FDF7CEFC4D
:1032400001239C46029BE14401364B4501D100F02D
:1032500074FF0323002101202B706E70FEF750FCD9
:103260005B462A002900009300200223FEF792FC0F
:103270005B4621000093220001230020FEF78AFC18
:10328000B846012107000120FEF73AFC002FD2D1F9
:1032900046460648FDF7A2FC53461B888EE5C0460D
:1032A0002CEB001038EB001058EB00106CEB00100A
:1032B00053460120F8495B699847061E00D063E237
:1032C00053461B88022B00D075E553460120F34975
:1032D0005B6998478046002800D151E253460020A0
:1032E0009B689847EE4B09ADC4B22B80002C00D0F0
:1032F00062E200210120FEF703FC0A232A0000936A
:1033000029000020073BFEF745FC0026002801D0DD
:1033100000F02EFC01210120FEF7F2FB32000C210F
:10332000E048FDF75BFCE04B002101202B80FEF71D
:10333000E7FB0A232A00009329000020073BFEF741
:1033400029FC0026002801D000F00FFC01210120FB
:10335000FEF7D6FB32000A260D21D448FDF73EFCCD
:10336000D34B002101202B80FEF7CAFB03232A0048
:10337000290000200096FEF70DFC002800D0EDE3A8
:1033800001210120FEF7BCFB00220E21C948FDF7F8
:1033900025FCC94B002101202B80FEF7B1FB032344
:1033A0002A00290000200096FEF7F4FB002801D136
:1033B00000F097FEAE7801210120FEF7A1FB32005C
:1033C0000A260F21BD48FDF709FCBD4B0021012055
:1033D0002B80FEF795FB03232A002900002000968E
:1033E000FEF7D8FB002801D000F006FD01210120E6
:1033F000FEF786FB00221C21B248FDF7EFFBB24B23
:10340000002101202B80FEF77BFB03232A002900EB
:1034100000200096FEF7BEFB002800D02FE201211D
:103420000120FEF76DFB00221D21A848FDF7D6FB09
:10343000A74B002101202B80FEF762FB0A232A0004
:10344000009329000020073BFEF7A4FB002801D1D0
:1034500000F040FDAE78002C00D027E201210120D1
:10346000FEF74EFB320028219A48FDF7B7FB9A4B36
:10347000002101202B80FEF743FB0A232A00009342
:1034800029000020073BFEF785FB002801D100F052
:103490003BFDAE7801210120FEF732FB32002921ED
:1034A0008E48FDF79BFB8E4B002101202B80FEF701
:1034B00027FB0A232A00009329000020073BFEF780
:1034C00069FB002801D100F039FDAE78012101200F
:1034D000FEF716FB32002A218248FDF77FFB824B64
:1034E000002101202B80FEF70BFB0A232A0000930A
:1034F00029000020073BFEF74DFB002801D100F01A
:1035000037FDAE7801210120FEF7FAFA32002B21B7
:103510007648FDF763FB764B002101202B80FEF7F8
:10352000EFFA0A232A00009329000020073BFEF748
:1035300031FB002801D100F035FDAE7801210120DA
:10354000FEF7DEFA32002C216A48FDF747FB6A4B92
:10355000002101202B80FEF7D3FA0A232A000093D2
:1035600029000020073BFEF715FB002801D100F0E1
:1035700033FDAE7801210120FEF7C2FA32002D2181
:103580005E48FDF72BFB5E4B002101202B80FEF7F0
:10359000B7FA0A232A00009329000020073BFEF710
:1035A000F9FA002801D100F031FDAE7801210120A7
:1035B000FEF7A6FA320030215248FDF70FFB524BBE
:1035C000002101202B80FEF79BFA0A232A0000939A
:1035D00029000020073BFEF7DDFA002801D100F0AA
:1035E0002FFDAE7801210120FEF78AFA320040213A
:1035F0004648FDF7F3FA464B002101202B80FEF7E9
:103600007FFA0A232A00009329000020073BFEF7D7
:10361000C1FA002801D100F02DFDAE780121012072
:10362000FEF76EFA320050213A48FDF7D7FA3A4BCE
:10363000002101202B80FEF763FA0A232A00009361
:1036400029000020073BFEF7A5FA002801D100F071
:103650002BFDAE7801210120FEF752FA32006021E5
:103660002E48FDF7BBFA2E4B002101202B80FEF7E0
:1036700047FA0A232A00009329000020073BFEF79F
:1036800089FA002801D100F029FDAA78160001214D
:103690000120FEF735FA45E05CE9001058E900101A
:1036A000030C000064E90010030D0000DCED0010C5
:1036B000030E000080E90010030F00009CE90010D9
:1036C000031C0000B8E90010031D0000D4E900103D
:1036D00003280000F0E90010032900000CEA0010A4
:1036E000032A000028EA0010032B000044EA00101F
:1036F000032C000060EA0010032D00007CEA00109B
:103700000330000098EA001003400000B4EA001003
:1037100003500000D0EA001003600000ECEA001043
:103720000370000032007021E748FDF757FAFCF7FC
:1037300023FE8146002C00D07CE1FA240A26E34FC8
:10374000A400002101202F80FEF7DAF903232A00CC
:10375000290000200096FEF71DFA013C01210120FE
:10376000FEF7CEF9002CECD1FCF706FE4B46C11A51
:10377000D748FDF733FA534646461B88FFF71BFB35
:1037800053461B88FFF717FB534600209B6898475A
:10379000C0B2FFF7BBF893E553461B88FFF711FB58
:1037A00053461B88FFF70FFBCA48FDF717FAFFF7D0
:1037B000D8FB53461B88BBE40A232A000093290048
:1037C0000020073BFEF7E6F90022002800D0AA7887
:1037D0000C21C148FDF702FAC04B2A002B800A23B6
:1037E000290000930020073BFEF7D4F900220028AF
:1037F00000D066E10A260D21B948FDF7EFF9B94B73
:103800002A002B802900032300200096FEF7C2F92E
:10381000002800D053E100220E21B348FDF7DEF965
:10382000B24B2A002B802900032300200096FEF7CC
:10383000B1F9002800D1C4E20A260F21AA78AC48C9
:10384000FDF7CCF9AB4B2A002B8029000323002085
:103850000096FEF79FF9002800D09FE200221C216D
:10386000A548FDF7BBF9A54B2A002B8029000323AF
:1038700000200096FEF78EF9002800D164E2AE78B1
:10388000002C00D1D5E232001D219D48FDF7A6F99C
:103890009C4B2A002B800A23290000930020073B21
:1038A000FEF778F9002800D161E2AE7832002821D5
:1038B0009548FDF793F9954B2A002B800A232900A0
:1038C00000930020073BFEF765F9002800D124E2B1
:1038D000AE78320029218E48FDF780F97B4B2A0013
:1038E0002B800A23290000930020073BFEF752F9A2
:1038F000002800D1FAE1AE7832002A218548FDF790
:103900006DF9854B2A002B800A23290000930020A3
:10391000073BFEF73FF9002800D1D1E1AE78320035
:103920002B217E48FDF75AF97D4B2A002B800A2374
:10393000290000930020073BFEF72CF9002800D156
:10394000A8E1AE7832002C217648FDF747F9764B96
:103950002A002B800A23290000930020073BFEF752
:1039600019F9002800D17FE1AE7832002D216F488F
:10397000FDF734F96E4B2A002B800A2329000093AF
:103980000020073BFEF706F9002800D156E1AE788B
:10399000320030216748FDF721F9674B2A002B8060
:1039A0000A23290000930020073BFEF7F3F80028C4
:1039B00000D12DE1AE78320040216048FDF70EF9CC
:1039C0005F4B2A002B800A23290000930020073B2D
:1039D000FEF7E0F8002800D1F1E0AE7832000A26C8
:1039E00050215848FDF7FAF8574B2A002B80290040
:1039F000032300200096FEF7CDF8002800D1C6E092
:103A00006021AA785148FDF7E9F8514B2A002B8034
:103A10002900009603230020FEF7BCF800260028AA
:103A200000D17FE6AA7870212748FDF7D7F8FCF788
:103A3000A3FC8146FA240A26244FA4002F800323E6
:103A40002A00290000200096013CFEF7A3F8002C74
:103A5000F4D189E6002398460A3399463D4B09ADD7
:103A60009B4606AC0DE0390058462278FDF7B6F8C3
:103A700001239C46029BE0440137984501D1FFF7A2
:103A80000BFC03232B704B462A0029006F7000208B
:103A900000930223FEF77EF84B462200009321009C
:103AA000012300200396FEF775F8061EDBD1039E66
:103AB000FFF7EFFB2848FDF791F8FFF7A3F9AA7885
:103AC000AAE6AA7896E6C04608EB0010032A000092
:103AD00024EB001078EC001064E90010030D0000E6
:103AE000DCED0010030E000080E90010030F000061
:103AF0009CE90010031C0000B8E90010031D000041
:103B0000D4E9001003280000F0E9001003290000A8
:103B10000CEA001028EA0010032B000044EA001011
:103B2000032C000060EA0010032D00007CEA001066
:103B30000330000098EA001003400000B4EA0010CF
:103B400003500000D0EA001003600000ECEA00100F
:103B50000370000058EB0010D0EC0010AF7801218A
:103B60000120FDF7CDFF3A000FE4AE78FFF7EEFB42
:103B7000AE78FFF7CFFB04213000FEF741F9FFF7E5
:103B800060F903213000FEF7CBF9FFF786FA002237
:103B90006021B648FDF722F8B54B2A002B800A2396
:103BA000290000930020073BFDF7F4FF00260028C2
:103BB00000D1B7E5AA78002C00D034E766E50022F2
:103BC0005021AC48FDF70AF8AB4B2A002B800A23A2
:103BD000290000930020073BFDF7DCFF0028D6D02A
:103BE000AE78002C00D135E5320060219F48FCF70B
:103BF000F5FF9F4B2A002B800A2329000093002009
:103C0000073BFDF7C7FF002800D00BE700220AE7BB
:103C1000002240219948FCF7E1FF994B2A002B80B4
:103C20000A23290000930020073BFDF7B3FF00287B
:103C3000C5D0AE78002C00D0D0E6EFE400223021D1
:103C40009048FCF7CBFF904B2A002B800A232900D9
:103C500000930020073BFDF79DFF0028D8D0AE78E9
:103C6000002C00D0A7E6BDE400222D218748FCF7F8
:103C7000B5FF874B2A002B800A23290000930020E0
:103C8000073BFDF787FF0028D8D0AE78002C00D086
:103C90007EE68BE400222C217E48FCF79FFF7E4BC2
:103CA0002A002B800A23290000930020073BFDF700
:103CB00071FF0028D8D0AE78002C00D055E659E42A
:103CC00000222B217548FCF789FF754B2A002B80B9
:103CD0000A23290000930020073BFDF75BFF002823
:103CE000D8D0AE78002C00D02CE627E400222A2180
:103CF0006C48FCF773FF6C4B2A002B800A232900C9
:103D000000930020073BFDF745FF0028D8D0AE7890
:103D1000002C00D003E6FFF7F5FB002229216348C1
:103D2000FCF75CFF624B2A002B800A2329000093DA
:103D30000020073BFDF72EFF0028D7D0AE78002CDF
:103D400000D0D9E5FFF7C2FB00221D215948FCF73E
:103D500045FF594B2A002B800A232900009300209D
:103D6000073BFDF717FF002801D0FFF773FB002288
:103D700028215248FCF732FF514B2A002B800A239E
:103D8000290000930020073BFDF704FF0028C4D062
:103D9000AE78002C00D09CE5FFF77CFB1C21AA78B4
:103DA0004848FCF71BFF484B2B800A230093073B36
:103DB0002A0029000020FDF7EDFE0028C4D0AE78CF
:103DC00061E50A2600220F214048FCF707FF404B1F
:103DD0002A002B802900032300200096FDF7DAFE3D
:103DE0000028DBD100221C213648FCF7F7FE364BB9
:103DF0002B8003230096DBE7AE7801210120FDF73D
:103E00007FFE32001C212F48FCF7E8FE2E4B0021DC
:103E10002B800120FDF774FE0A230093073B2A0044
:103E200029000020FDF7B6FE002801D1FFF7F7FAC0
:103E3000AE7801210120FDF763FE32001D211D48EF
:103E4000FCF7CCFE1C4B002101202B80FDF758FE17
:103E50000A232A00009329000020073BFDF79AFE61
:103E6000002837D0AE78FFF7F9FAC046ECEA001028
:103E700003700000D0EA001003600000B4EA0010F4
:103E80000350000098EA0010034000007CEA001094
:103E90000330000060EA0010032D000044EA001027
:103EA000032C000028EA0010032B00000CEA00108D
:103EB000032A0000D4E9001003280000F0E90010F4
:103EC00003290000B8E90010031D00009CE9001060
:103ED000031C000001210120FDF712FE0022282111
:103EE000A748FCF77BFEA74B002101202B80FDF7A4
:103EF00007FE0A232A00009329000020073BFDF754
:103F000049FE002800D043E701210120FDF7F8FD1C
:103F1000002229219C48FCF761FE9C4B00210120D6
:103F20002B80FDF7EDFD0A232A00009329000020D5
:103F3000073BFDF72FFE002800D0FFE601210120FE
:103F4000FDF7DEFD00222A219148FCF747FE914B48
:103F5000002101202B80FDF7D3FD0A232A000093C6
:103F600029000020073BFDF715FE002800D0CEE613
:103F700001210120FDF7C4FD00222B218648FCF71A
:103F80002DFE864B002101202B80FDF7B9FD0A2371
:103F90002A00009329000020073BFDF7FBFD0028C5
:103FA00000D09EE601210120FDF7AAFD00222C2170
:103FB0007B48FCF713FE7B4B002101202B80FDF793
:103FC0009FFD0A232A00009329000020073BFDF7EC
:103FD000E1FD002800D06EE601210120FDF790FDF3
:103FE00000222D217048FCF7F9FD704B00210120C3
:103FF0002B80FDF785FD0A232A000093290000206D
:10400000073BFDF7C7FD002800D03EE60121012057
:10401000FDF776FD002230216548FCF7DFFD654B9A
:10402000002101202B80FDF76BFD0A232A0000935D
:1040300029000020073BFDF7ADFD002800D00EE66B
:1040400001210120FDF75CFD002240215A48FCF7C8
:10405000C5FD5A4B002101202B80FDF751FD0A239D
:104060002A00009329000020073BFDF793FD00285C
:1040700000D0DEE501210120FDF742FD00225021A4
:104080004F48FCF7ABFD4F4B002101202B80FDF783
:1040900037FD0A232A00009329000020073BFDF783
:1040A00079FD002800D09BE501210120FDF728FDC6
:1040B000002260214448FCF791FD444B002101207F
:1040C0002B80FDF71DFD0A232A0000932900002004
:1040D000073BFDF75FFD002800D06BE50026FFF7EA
:1040E000D6FA0A2601210120FDF70AFD00220F2140
:1040F0003748FCF773FD374B002101202B80FDF77B
:10410000FFFC03232A00290000200096FDF742FD52
:10411000002800D070E601210120FDF7F1FC00220B
:104120001C212D48FCF75AFD2C4B00212B8001202F
:10413000FDF7E6FC0323009671E63E00FFF7ACF8BE
:1041400001213000FDF7ECFEFEF7A7FF0221300051
:10415000FDF756FEFEF775FE03213000FDF750FE19
:10416000FEF76FFE02213000FDF7DAFEFEF795FF45
:10417000FF211B482940FCF731FD2600FEF798FF80
:10418000F0E90010032900000CEA0010032A0000E7
:1041900028EA0010032B000044EA0010032C000062
:1041A00060EA0010032D00007CEA001003300000DC
:1041B00098EA001003400000B4EA00100350000029
:1041C000D0EA001003600000ECEA00100370000069
:1041D0009CE90010031C0000B8E90010031D00005A
:1041E000ACEB001001230D4810B501000380002343
:1041F0004C2243600372C360036143618361C36106
:10420000483110333430FCF7C7F8FDF769FF044933
:104210000448FDF721F9012010BDC046A01F002071
:104220005543001018EE001070B5040004A805787E
:104230000020002C12D12C26094CA055043EA1557B
:10424000292162542A22A35401321900A554206264
:104250006062FDF765FE01230120637070BDC046FA
:10426000A01F00202C2370B5384C84B0E05CFEF712
:10427000D9F81823034229D06268173B1343C207B9
:1042800021D50222134382061AD504221343636008
:10429000430602D5A3690133A3612C2301A9E05C85
:1042A000FEF7FEF9002816D1237A0020002B43D018
:1042B000012B03D163685B0700D4207204B070BD8A
:1042C00004229343E3E702229343DCE7012362687D
:1042D0009A431300D3E7260034363000FCF7E0F8A9
:1042E0006B469B88050003606B469A794723C2544E
:1042F0006B46DB79164A9B009B580022838048233B
:104300000021C25430000132FCF750F8002802D1DD
:10431000236901332361236B002BC5D02800984704
:104320000028C1D02000012200213430FCF772F8AF
:10433000237A0020002BBBD163685B07BED5E368FE
:1043400001300133E36001232372B7E7A01F00208F
:104350009CEF0010F0B54546DE4657464E46E0B5A8
:104360000488050097B0012C0FD0C748FCF736FC35
:10437000C648FCF733FCC648FCF730FC17B0F0BC6D
:10438000BB46B246A946A046F0BD0020C1496B69B4
:104390009847061E00D03DE12B88012BE5D1002077
:1043A000BD496B699847002876D00023BB4F9946DA
:1043B00007E0FFF757FF3800FCF778F8002800D037
:1043C000F6E0FDF73DF80028F3D12B88012BD5D17D
:1043D00000206B69B24998470028CFD0B14F7B6865
:1043E000994600239B46B04B9A46FDF729F80028D2
:1043F000C4D0FBF7C1FFFA254346AD00C01AA8425E
:1044000056D2796849450ED0A848FCF7E7FB7C688E
:10441000E30700D5C8E0A30700D5C1E0630700D5D6
:10442000BAE07B689946FFF71DFF00283CD19B4D01
:104430002800FCF73BF80028D7D003AC012221006C
:104440002800FBF7E7FFFA215846890003F0A2F99C
:1044500097484B1C9B46FCF7C1FB4723E35C002BB2
:1044600000D0F8E09348FCF7B9FBA2882168924895
:10447000FCF7B4FBA388002B0AD000258F4E6319EC
:1044800099793000FCF7AAFBA3880135AB42F6DC32
:104490008B48FCF7A3FBA8E72B88012B00D1E6E0B3
:1044A000002E00D06AE760E78648FCF797FBBEE77E
:1044B000FBF762FF4823002203ACE2540332023BC5
:1044C000FF32E252C523804A9B0004927A688046FC
:1044D0000393520757D46A4613807C4B6946538036
:1044E0009380D63BFF3BF85CFDF7CEFF00284AD017
:1044F0005846290003F04EF975484B1C9B46FCF7C3
:104500006DFB4723E35C002B00D0ACE06948FCF76F
:1045100065FBA28821686848FCF760FBA388002B34
:104520000AD00025654E631999793000FCF756FBD7
:10453000A3880135AB42F6DC6148FCF74FFB002055
:10454000FEF780F9002804D10020FEF7ADF900281D
:104550000BD00020FEF776F904000020FEF7A4F946
:10456000210002005B48FCF739FB53461B68002B17
:1045700000D146E7534658481968FCF72FFB002343
:10458000524613603DE72C23F85CFDF74BFF01001A
:104590005248FCF723FBD2E75148FDF7F7F840E714
:1045A0005048FDF7F3F839E74F48FDF7EFF832E7E9
:1045B00003AC012221003800FBF72CFFFA2148460A
:1045C000890003F0E7F83A484B1C9946FCF706FBD4
:1045D0004723E35C002B42D13648FCF7FFFAA28860
:1045E00021683548FCF7FAFAA388002B0ED0002387
:1045F0009A46324E5346E31899793000FCF7EEFAAA
:1046000001239C46A388E2445345F3DC2C48FCF785
:10461000E5FAD6E6234F35487978FCF7DFFA3969B1
:104620003348FCF7DBFA79693248FCF7D7FAB96905
:104630003148FCF7D3FAF9693048FCF7CFFA7F68C4
:104640003C421CD1BB0761D47B075BD42B88012B78
:1046500000D093E6A3E62A48FCF7C0FA05E728480D
:10466000FCF7BCFABBE72648FCF7B8FA51E7002094
:104670006B690B499847002800D111E7AEE61A484C
:10468000FDF784F8DEE7C0461CEE001028EE0010AF
:1046900034EE00105CE900103CE70010D41F00204D
:1046A000D0EE0010A01F00208429002014EF00107D
:1046B00094EE0010A4EE0010B4EE0010C8EE00104E
:1046C00008E5001024EF00100200010201020000C2
:1046D000E4EE0010F4EE001008EF0010D8EE001029
:1046E00078EE00105CEE001040EE001038EF001085
:1046F0004CEF001060EF001074EF001088EF001016
:10470000ACEE00100348FDF741F89FE70248FDF7C3
:104710003DF899E778EE00105CEE0010094A83003E
:1047200094464022634410B51C68C0006240C02417
:1047300014408022520113431C60034B9C4660448A
:10474000416010BD04C00140004001400A4B8000A0
:104750009C4604236044002901D00C230821002A30
:1047600000D10B00026853400C221A4080235B01E9
:10477000184302607047C04604C001400123D022A4
:104780008340120693629361094A83009446402253
:1047900063441968C0004A40C02111408022520180
:1047A00013431960034B9C460523604443607047E4
:1047B00004C001400040014070B5EFF3108C72B6A8
:1047C0000D4D2B68002BFCD0BFF35F8F0724CB0867
:1047D000C618C05C01230C40A3401C0004400342E7
:1047E00007D103433370BFF35F8F2C608CF31088C5
:1047F00070BD100001F08CF82C0100D0F8B54746D0
:10480000CE46884680B5EFF3108C72B6214D2C68E9
:10481000002CFCD0BFF35F8F9A422CD8D408072716
:10482000055D061901241740BC402C421FD007210A
:104830000127894609E0D408055D06194C46390070
:104840001440A1400C00294211D001329342F2D20F
:1048500001204042BFF35F8F00220E4B1A608CF3A1
:10486000108800280FDBC0BCB946B046F8BD2C4309
:1048700010003470EEE7BFF35F8F00232B608CF3E2
:104880001088012040424346002BECD0089801F0EC
:104890003FF8C0462C0100D0024B18688007C00FBB
:1048A0007047C04600C006400021044B044ABFF3D5
:1048B0005F8F02C39342FAD17047C046000100D017
:1048C000800100D0044A1078431CDBB2172B00D9BA
:1048D000102313707047C0463204002000B5054B0A
:1048E00083B00100009318221F230348FFF786FFBF
:1048F00003B000BDDCEF0010A824002083680B4843
:1049000010B5844661446244090112019A1859188D
:1049100054684B6801209C4201D802D00020C0B2EC
:1049200010BD12680B689A42F9D8F7E7FFFFFF0F36
:104930000A4B1968EFF3108072B60A68002AFCD09F
:10494000BFF35F8F1B68BFF35F8F00221A6080F395
:10495000108840BF002000217047C046DC2E002098
:10496000F8B557464E464546DE46E0B599460CAB8F
:104970001C780DAB1B78060090469A460768002C01
:1049800011D1BC7B002C42D065003B682D19033D42
:1049900059194B78BB73002B00D1FB7300238B702C
:1049A0004B700B7004E065003B682D19033D5919ED
:1049B000B2682A4B94464246E3181B0163441A60CE
:1049C0004A465A600A9A9A600B9ADA6000238B7002
:1049D0004B700B707B7B9B46002B2BD022005946E3
:1049E000B8687B6898473A68002816D05B465846F6
:1049F0005B005B445519033BA870D118D35C002BB6
:104A000000D06B705B460C707B73A34513D0F0BC79
:104A1000BB46B246A946A046F8BD5B465B005B4478
:104A2000033BD3189C705119525D002A00D05A7074
:104A30005B460B707C7342464B46307D00F026FC93
:104A4000051E06D05346002B03D12100306800F02C
:104A500073FE0E9B002BDAD01D70D8E7FFFFFF0F0F
:104A6000F0B5DE464E46574645460023E0B58DB0CC
:104A70000A936B4B8200D3580B90994600239B46B8
:104A80004B46079300F0A2FB079C06000F006268EC
:104A9000EFF3108572B61368002BFCD02200079448
:104AA000BFF35F8F2468637B9946002B67D09268C1
:104AB0005C4B90464B441B01984443461A685B6824
:104AC00010001900801BB94100295FDD0B9800F030
:104AD000DDFB00230026984600279A46079C636862
:104AE000BFF35F8F5A461A6085F310885346002B38
:104AF00008D10028C6D10DB0F0BCBB46B246A946CD
:104B0000A046F0BD0A9B414618024B461843D047C9
:104B1000089009916268EFF3108572B61368002B54
:104B2000FCD00794BFF35F8F0899099A002A48DBED
:104B3000114303D0079B1B69002B5DD1079B1B68AA
:104B4000D97B002907D04A00521819688C4649467B
:104B50006244033A51704A46DA734B46079A013B66
:104B6000D168CA5C0132CA545B46079A1361536824
:104B7000BFF35F8F5A461A6085F3108882E70023DF
:104B80000026984600279A460020A7E7002901D171
:104B900000289BD10021200000F050FD43461E68F4
:104BA0005F689B68079A9A464346DB689846D368D5
:104BB0004B44013B1B780A931B0203431361002003
:104BC0008CE72369002BB9D033003C005B1A944179
:104BD0001A002300A74219D89F421BD059460491BE
:104BE000012103914946029141460191514607989E
:104BF0000091FFF7B5FEB7E700F0E8FA089A099BC5
:104C000006000F0092197B419942E5D901225242D8
:104C1000D317E3E79642E1D901225242D317DDE7E9
:104C2000C02D0020FFFFFF0FF8B557464E46454602
:104C3000DE46E0B5404D81468A466A68EFF310884B
:104C400072B61368002BFCD0BFF35F8F2E68B47B65
:104C5000002C39D0670033683F19033FDB195A78BD
:104C6000B273002A00D1F273A968344A8C464946CF
:104C7000A21812016244116051465160304991609E
:104C80000021D160997059701970737B9B46002B7D
:104C900035D022001900B068736898473268002840
:104CA00020D05B4658465B005B44D719033BB87085
:104CB000D118D35C002B00D07B705B460C707373F3
:104CC0005C451DD0002626E06B68BFF35F8F1C603B
:104CD00088F3108801204042F0BCBB46B246A9468A
:104CE000A046F8BD5B465B005B44033BD3189C7059
:104CF000D119D25D002A00D05A705B460B707473D4
:104D00004A465346287D00F0C1FA061EDAD021003B
:104D1000286800F011FDEB681B19013B19786B68DE
:104D2000BFF35F8F00221A6088F310880020002EE6
:104D3000D2D108022043CFE734040020FFFFFF0F49
:104D40003149001010B5124C6368002B04D00A21C1
:104D5000104800F029FB10BD23000F4A10212068E5
:104D600000F08AFB032000F025FA032000F0FEFA91
:104D700003200A4900F044FAFFF7A4FD084B9C46C3
:104D8000032360442375074B80006060DC60DEE72E
:104D900034040020DC2E0020FD480010614A001081
:104DA00040000034C02D002000487047340400202B
:104DB000F0B557464E464546DE46E0B585B0019310
:104DC00010AB1B780600039300239A469846009286
:104DD0007268EFF3108972B61368002BFCD0BFF332
:104DE0005F8F3568AC7B002C49D067002B683F197A
:104DF000033FDB195A78AA73002A00D1EA73B1681D
:104E00004F4A8C4600980199A21812016244106022
:104E100051600E9991600F99D16042469A705A7014
:104E20001A706B7B9B46002B45D022001900A868A6
:104E30006B6898472A68002830D05B4658465B006C
:104E40005B44D719033BB870D118D35C002B00D05A
:104E50007B705B460C706B735C452DD0F3681B193F
:104E6000013B18787368BFF35F8F42461A6089F37D
:104E700010885346002B2CD10002204307E07368B2
:104E8000BFF35F8F1C6089F310880120404205B09A
:104E9000F0BCBB46B246A946A046F0BD5B465B00EF
:104EA0005B44033BD3189C70D119D25D002A00D01B
:104EB0005A705B460B706C73307D009A019B00F05A
:104EC000E5F982460028C9D02100306800F034FCA2
:104ED000C4E7039B002B30D00E9B00200F9998470E
:104EE000030004000D000B4327D000290DDA0098C1
:104EF000019902000B00121BAB41994213D818D044
:104F000000920193039B9A4662E700F05FF902006A
:104F10000B00A4185D4100940195A94203D8F1D17A
:104F200000998A42EED901235B42DC170093019479
:104F3000E8E700999142E3D9F5E70020A7E7C046EA
:104F4000FFFFFF0FF0B504000D0006267642F717AD
:104F5000C64636196F4100B58F4213D810D000F005
:104F600035F932003B00121A8B41002B14DC002B68
:104F700037D02900200000F033F980BCB846F0BDDE
:104F80008642ECD90026002700F020F932003B00D1
:104F9000121A8B41002BEADD30003900FFF744FE86
:104FA0000028E6DB00239846BC460F4A0F4F7B6A79
:104FB0009C4504D8B96A8E42DBD99C45D9D1116889
:104FC000EFF3108072B60B68002BFCD0BFF35F8F3D
:104FD0001368BFF35F8F4146196080F3108820BFCC
:104FE000E5E7002AC5D0D7E7DC2E002000400540C9
:104FF00070B5060000F0EAF8FA2204000D00002364
:1050000030000021920003F0B9FA001969418D4285
:1050100005D802D0FFF796FF70BD8442FAD901206F
:105020004042C117F6E7C046F8B5CE46474680B5C0
:1050300006000C00FFF7F8FD00280CDC2D4B0020CB
:10504000596A8C4203D89B6A0130B34245D3C0BC35
:10505000B946B046F8BD20BF274D6A68EFF3108708
:1050600072B61368002BFCD0BFF35F8F2B68C1B200
:105070009C465B7B8B4235D0FF2303405A00914610
:1050800062461268994490464A464244033A9278EE
:10509000002A1DD0EA68000A90464344013B1B7871
:1050A000C0B2834221D06B68BFF35F8F00221A60C9
:1050B00087F310880F4A0020536A9C42C7D8926A2F
:1050C0000130B242C3D2E01A421E9041C0B2BEE7E4
:1050D0002B699842E7D12A61E5E7601A431E98419F
:1050E000C0B2B4E7FF230340D4E7604600F024FBDE
:1050F000D9E7C0460040054034040020F0B5D6464C
:105100004F464646C0B5EFF305833F2213401800D3
:105110001038EFF3108C72B6204D2A68002AFCD0AC
:10512000BFF35F8F0122110081401D4C88466163EF
:105130001C4917000E788A463100C1400F400A42D0
:1051400009D1BFF35F8F2F608CF31088E0BCBA46A3
:10515000B146A846F0BD14498200646A51588C4299
:105160000FD3124BD25843469E4353461E70BFF393
:105170005F8F00232B608CF31088002AE6D09047C5
:10518000E4E70B4A9B00904643441A681A60BFF359
:105190005F8F00232B608CF31088D7E7280100D0A5
:1051A000004005403E330020F42E002090160020E1
:1051B000D03F054010B50100024A0348FFF7FCFA52
:1051C00010BDC046F8EF001038330020034B596A79
:1051D0000A00986A596A8A42FAD17047004005402D
:1051E000064A536A9942FCD807D1044B02E05A6A36
:1051F000914202D19A6A8242F9D370470040054039
:1052000070B504000D00EFF3108672B61A4A1368E9
:10521000002BFCD0BFF35F8F002D1BD0200000F0CF
:1052200013FD164981420AD0200000F015FD01212E
:10523000200000F0EFFC0123A340114A1360114B42
:10524000A400E550BFF35F8F00220B4B1A6086F37A
:10525000108870BD0B4BA200D5500122A2400A4914
:1052600020000B7893430B70044900F01FFD0021D0
:10527000200000F0CFFCE5E7280100D0FD50001031
:1052800038600540901600203E330020F0B54F46B0
:10529000D6464646C0B507002F4C616A0D00A66A87
:1052A000616AA942FAD18B4208D805D00120E0BC3E
:1052B000BA46B146A846F0BDB242F7D9EFF3108A1C
:1052C00072B6264801680029FCD0BFF35F8F012524
:1052D000BD402349204C8846097889462943C9B2F4
:1052E0008C46414660460870391D1E48890065633A
:1052F0000A51B9000B50216A0020294219D0616A75
:105300000800A66A616A8142FAD18B4219D801D19C
:10531000B24216D8CC451DD00F4B1F201D625D63D5
:1053200001230740BB40104A1E38136043464A46DB
:105330001A70BFF35F8F0022084B1A608AF310883F
:10534000B5E70020BFF35F8F0022044B1A608AF399
:105350001088ACE70120ECE700400540280100D0B0
:105360003E330020F42E002080E200E0EFF3108CAA
:1053700072B60A490B68002BFCD0BFF35F8F012384
:105380008340074A0748136202789A430270BFF3CA
:105390005F8F00230B608CF310887047280100D0CA
:1053A000004005403E330020024B9C46614489008A
:1053B000016070474000003410B50400FFF782FA26
:1053C00001002000FFF7F0FFFF232371BFF35F8F81
:1053D00010BDC04610B50400FFF774FA01002000AC
:1053E000FFF7E2FFFF23A380BFF35F8F10BDC0462E
:1053F00010B504000120FFF771FA044B9C4660448D
:1054000080002060BFF35F8F10BDC04640000034B5
:1054100070B5050014001600002915D00C00002AF4
:1054200012D080686B689847296800280ED07300F6
:105430009B196200033B1219CB18033A9C70881821
:105440008A5C002A15D10670200070BD63001B190C
:105450007200033B9219CB18033A9E7088188A5C3D
:10546000002A02D104703400EEE75A700470340050
:10547000EAE75A700670E7E730B583600023CCB2E4
:1054800043730133047342608373C4730D00006877
:10549000012C06D9421C0133DBB2137003329C424B
:1054A000F9D1FF2129404B00591800234018033837
:1054B000437030BDF8B5CE46474606000C0080B5B7
:1054C000002907D04D0003686D18033D5A1957781D
:1054D000002F04D12000C0BCB946B046F8BD790009
:1054E000C9190339884643445978894600215970BF
:1054F000517073683A00210080689847336800282B
:1055000014D042469A18947059195B5D002B00D054
:1055100053700F70270049463000FFF7CBFF39006A
:1055200002003000FFF774FF0400D3E74246414613
:105530005D19AF709A185B5C002B00D06B70147013
:10554000E9E7C046F0B557464546DE464E46E0B56B
:105550000D006B0001685B19DF1E0400C85D83B09D
:105560000192CA1900284CD043001B18033BCB18EA
:105570005E78B446002E16D1019E002E3ED0E67B0A
:10558000002E04D073009B19CB18033B5D70E573AC
:1055900000282FD10023537003B0F0BCBB46B246A5
:1055A000A946A046F0BD72006244033A89184A78C1
:1055B000904600224A7091465A7001003200200045
:1055C000FFF726FF43468246002B07D05B00216889
:1055D0004344033BCB185A78002A16D14246514621
:1055E0002000FFF715FF2168019BCA19002BC6D1C7
:1055F0000028CFD043001B18033BCB180021997023
:10560000C8E7019B002BBAD1C4E7500080180338CB
:10561000091848788346484648705870414620002B
:10562000FFF7F6FE594680462000FFF743FF41464C
:1056300002002000FFF7ECFE8046CFE7F0B55746AA
:105640004546DE464E46E0B583B00191457B0400F9
:105650006B0000685B19DF1EC15DC21900294ED0C6
:105660004B005B18033BC3185E78B446002E18D17C
:10567000019E002E40D0E67B002E04D073009B19C3
:10568000C318033B5D70E573002931D10023280066
:105690005370617303B0F0BCBB46B246A946A04646
:1056A000F0BD72006244033A8018427890460022AE
:1056B000427091465A7020003200FFF7A9FE43461F
:1056C0008246002B07D05B0021684344033BCB1884
:1056D0005A78002A17D1424651462000FFF798FE1B
:1056E000019B01002068C219002BC4D10029CDD034
:1056F0004B005B18033BC31800209870C6E7019B62
:10570000002BB8D1C2E75000801803380918487838
:10571000834648464870587041462000FFF778FE9F
:10572000594680462000FFF7C5FE41460200200092
:10573000FFF76EFE8046CEE770B5040000292CD03E
:10574000437B8B422ED00568480040180338281848
:105750008278002A21D053009B18033BEA5CEE18A4
:105760008A4202D11BE0002A08D053009B18033B59
:10577000EB185A788A42F6D142785A7000230122F7
:10578000837043702000FFF7DDFE617B0200200084
:10579000FFF73EFE6073012000E0002070BD4378FB
:1057A0003370EBE701221900FFF7CCFE6073012094
:1057B000F4E7C0462C4B2D4A70B51A602C4A2D4B8D
:1057C0002D491A6014008B689C43FBD12B4D2C4E45
:1057D000B54208D2013E761BB60808CD9847230093
:1057E0000134B342F9D100F0B1F8264A214B1A60D6
:1057F000214A9368DB43DB01DD09002BF9D140220C
:10580000214B224C224E9A675A671A67DA66B442D5
:1058100008D223682000002B20D00834FFF7DAFDDF
:10582000B442F6D31B4E1C4CC022A168300002F0DB
:1058300051FFA660FFF738F800F06CFBFFF782FA23
:10584000164C174EB44208D2013E361BB60808CC9F
:1058500098472B0001359E42F9D170BD0834FFF7FF
:10586000ABFDB442D5D3DDE700E00040BFCDFBFE89
:10587000FE7F3C0000F0004000C00040C80E002049
:10588000D80E0020FFFFFF0100F00140C00E0020F5
:10589000C80E00200000002000ED00E0D80E00201F
:1058A000E00E0020094A03001068002805D00849CE
:1058B000C3188B4207D81360704706480449C318C1
:1058C00010608B42F7D901204042F5E79029002073
:1058D000000004204033002000BEFDE710B50C009E
:1058E00082B01900002A09D0064B019200930200F1
:1058F0002300054801F0B4FE00BEFDE7034B1A008B
:10590000F3E7C0461CF000102CF00010F0E8001087
:105910000FB400B5084883B003F012F8049B002BC5
:1059200007D005A91800019101F0BAFE034803F061
:1059300007F800BEFDE7C0465CF0001008E5001067
:1059400010B50148FFF7E4FF6CF0001030B50C20F3
:1059500083B000F045FBFEF79FFF00280ED0944B6C
:10596000944A1A605A609A60DA601A615A619A61C0
:10597000DA611A62904A5A6203B030BD8F4CA06758
:1059800000F082FB01228E4B1A60636C012BFCD16C
:1059900003228C4B1A60894A936B012BFCD10224A1
:1059A0000121894A89480533009400F0C5FA05238E
:1059B000874A01218748009400F0BEFA864B5A6856
:1059C000FF2A02D8802252005A608022784C7D4BF8
:1059D00021691201804D1A60002905D0606901F02B
:1059E000D9FE01300138FDD1E0217B4B02201A683D
:1059F0001140802252012A43116019684840032156
:105A00000140116004219A681142FCD0802280215B
:105A100092012A4309011160802252005A606F4BA3
:105A200023616F4B5968FF2900D85A600321644AEB
:105A30006B4B116002399A681142FCD0E0201A6861
:105A40001040802252011A43106018684840032118
:105A500001400220116062498A681042FCD0802215
:105A600092011343802212011A6080225D4B520082
:105A70004A6063615C4B5968FF2900D85A608022F4
:105A80005A4BE1691201584D1A60002905D060692E
:105A900001F080FE01300138FDD1E02252490B684F
:105AA0001A4080235B012B431A60802380229B01D4
:105AB0002B4312011A6080223E4B52004A60E36180
:105AC0004B4B5968FF2900D85A608022494B216A04
:105AD0001201474D1A60002905D0606901F05AFE95
