:020000041000EA
:1000000000B5324B212058609868022188439860DF
:10001000D860186158612E4B002199600221596106
:100020000121F02299502B49196001219960352056
:1000300000F044F80222904214D00621196600F024
:1000400034F8196E01211966002018661A6600F04E
:100050002CF8196E196E196E052000F02FF8012189
:100060000842F9D1002199601B49196000215960AB
:100070001A491B48016001219960EB211966A021F2
:10008000196600F012F800219960164914480160C1
:100090000121996001BC002800D000471248134993
:1000A000086003C880F30888084703B5996A0420EC
:1000B0000142FBD001200142F8D103BD02B5186610
:1000C0001866FFF7F2FF186E186E02BD00000240BE
:1000D000000000180000070000035F00212200005C
:1000E000F4000018222000A00001001008ED00E03C
:1000F00000000000000000000000000074B24E7A12
:1001000000200420F7010010C3010010C5010010F9
:10011000C1010010C1010010C1010010C101001097
:10012000C1010010C1010010C1010010C701001081
:10013000C1010010C1010010C9010010CB01001065
:10014000CD010010CD010010CD010010CD01001037
:10015000CD010010CD010010CD010010CD01001027
:10016000CD010010CD010010CD010010CD01001017
:10017000CD010010CD010010CD010010CD01001007
:10018000CD010010CD010010CD010010CD010010F7
:10019000CD010010CD010010CD010010CD010010E7
:1001A000CD010010CD010010CD010010CD010010D7
:1001B000CD010010CD010010CD010010CD010010C7
:1001C00000BE00BE00BE00BE00BE00BE00F04BF888
:1001D000103800BEF2EB8871BCAD0110DCAD01102F
:1001E0003402001090A31AE700202149086006C8D5
:1001F00081F3088810471F48006800282FD10DA4FC
:100200000ECC002902D000F012F8F9E71A491B4A77
:10021000002000E001C19142FCD1194988471949E9
:1002200088471949884700BEFDE701C901C29A42C3
:10023000FBD37047DCAD0110C0000020101100207E
:100240002CBE011000000420000004202CBE011070
:1002500000100420001004200000000070470B482C
:1002600006F09AFD0047EFF30580C0B2704700002A
:1002700008ED00E0000000D040110020D8AA0220C4
:100280006D4E00100D030010914F001057560000E6
:1002900006005250ABB36053F8A50110060052504F
:1002A000861C030208A60110060052505422A29D8B
:1002B00014A6011005005250DE65F4682CBE011032
:1002C000F8B5C04610B5064C2378002B07D1054B76
:1002D000002B02D0044800E000BF0123237010BDB2
:1002E000488E02200000000010DE0010044B10B504
:1002F000002B03D00349044800E000BF10BDC046F6
:10030000000000004C8E022010DE001010B500F03E
:100310008FF800F005F800F05FF8002010BDC0462F
:10032000E12110B5490282B0002000F0EBFB002370
:10033000A022009300210020F033520001F0C0FE03
:100340001B4B802400938323E40022000021002023
:10035000DB0502F0BDF8174B2200009312210020AC
:10036000154B02F0B5F8154B220000932621002012
:10037000134B02F0ADF8134B220000933E210020F6
:10038000114B02F0A5F8114B2200009384235A214F
:100390000020DB0502F09CF80D4B22007A210020A2
:1003A00000930C4B02F094F801F0FCFD02B010BD7C
:1003B00040DE001050DE00100000A04164DE00109E
:1003C0000000C04178DE00100000E0418CDE00102B
:1003D000A0DE00100000104270B5FA256D0000F09C
:1003E00017F8001BA84205D300F012F80400002003
:1003F00000F098F800F072FCF1E7C04610B507F085
:100400003BFF012010BDC04610B504F04DF910BDF2
:1004100010B504F037FA002905D0FA220023920023
:1004200006F056FD10BDFA21890006F00FFDF9E730
:1004300010B5E1242402FFF7E1FF00F097F901F085
:1004400013F900F063F801F0C1FA01F051FB00F07C
:1004500071F82100002000F077F82100002001F061
:1004600031F91F4801F03CF91E491F4801F038F9E5
:100470001E491F4801F034F9052004F021FF010056
:100480001C4801F02DF9062004F01AFF01001A485B
:1004900001F026F9072004F013FF0100174801F0CE
:1004A0001FF9082004F00CFF0100154801F018F9AD
:1004B000092004F005FF0100124801F011F90420A1
:1004C00004F0FEFE0100104801F00AF901F0EAFC18
:1004D000142001F061FD002001F0ECF8012010BDB6
:1004E000B4DE0010CCDE0010D8DE0010F0DE00100C
:1004F000FCDE001014DF001028DF00103CDF0010CD
:1005000050DF001064DF001078DF0010192010B5F4
:1005100003F090FCD02380221B06920401205A6233
:100520009A6110BD002804D1D02380221B069204BA
:10053000DA6170470022034B01201A70E122120297
:100540005A60704794A602200023002805D101229A
:10055000034B1A7259601A70012318007047C04685
:1005600094A60220030010B50020002B00D010BD7F
:1005700009F028FDFBE7C04600B583B000236A46BA
:10058000D371002806D1054B01219B68D01D9847E7
:100590006B46DB79180003B000BDC04600070020A1
:1005A0000B0010B5002804D1034918000C68110095
:1005B000A047002010BDC046000700200EB48021D7
:1005C00010B5C3B045AB04CB4900040002A80193A9
:1005D00006F094FB0100002C03D1054B02A81B6818
:1005E0009847002043B010BC08BC03B01847C04671
:1005F00000070020064B074A9A5A824205D98622F4
:10060000D2009B588000C05870470020FCE7C046CD
:10061000049C02202C04000010B50300094A0800C5
:100620000949515A99420AD98621C90052589B005A
:1006300099580AF0EFFE43425841C0B210BD002065
:10064000FCE7C046049C02202C04000010B5084BB7
:10065000084A9A5A824201D8002010BD8622D20050
:100660009B5880000021C0580BF00AFFF5E7C046F8
:10067000049C02202C04000010B5084A084903001D
:10068000515A0020994208D98621C90052589B002E
:100690009858002100220CF02DF810BD049C022077
:1006A0002C040000F0B5C646040000B5244B2549D3
:1006B000C25C807AFFF782FF234B2449E25CA07A78
:1006C000FFF77CFFB9239B00E25C2149A07AFFF78A
:1006D00075FFA9239B00E2181E49A07AFFF76EFF61
:1006E0009623FF33E2561C49A07AFFF767FFCB231E
:1006F00098275B00E25C1949FF37A07AFFF75EFF9D
:10070000E25DA07A1649FFF759FFE35D002B10D098
:100710002600144B002598469936FF3633002A00F0
:100720004146A07AFFF74AFFE35D013543369D421B
:10073000F4DBA07A0C49FFF741FF80BCB846F0BD5E
:10074000E50200008CDF0010E60200009CDF0010D4
:10075000ACDF0010BCDF0010CCDF0010DCDF0010CD
:10076000ECDF0010FCDF00104CDF0010CA2000217D
:10077000B74B400010B519501981B648B649002250
:100780005850B64804315850B549B6481A745850B4
:10079000B548043158503F20B4495A540239585290
:1007A00040395A54BA2292009A5A0F2A01D901208C
:1007B00010BD91008918BB22AD48890092000468E1
:1007C0008A189A181460007959181071BF20800097
:1007D0008446A848614408601178002900D18DE062
:1007E00008006138192801D82039C9B21170517830
:1007F000002900D182E008006138192801D8203989
:10080000C9B251709178002978D008006138192850
:1008100001D82039C9B29170D17800296ED0080072
:100820006138192800D82EE1D1701179002965D0DE
:1008300008006138192800D82BE11171517900297D
:100840005CD008006138192800D828E151719179ED
:10085000002953D008006138192800D822E191718D
:10086000D17900294AD008006138192800D822E13E
:10087000D171117A002941D008006138192800D8B7
:100880001FE11172517A002938D008006138192807
:1008900000D81CE15172917A00292FD008006138EC
:1008A000192800D816E19172D17A002926D00800C3
:1008B0006138192800D816E1D172117B00291DD0AA
:1008C00008006138192800D813E11173517B002901
:1008D00014D008006138192800D810E15173917BB9
:1008E00000290BD008006138192801D82039C9B275
:1008F0009173D17B002901D00021D173BA208000EF
:10090000195A01318AB21A520F2A00D94FE79100C1
:100910008918BB2258488900920004888A189A18BE
:100920001480807859189070BF2080008446534806
:10093000614408601178002900D183E00800613823
:10094000192801D82039C9B211705178002979D0FD
:1009500008006138192801D82039C9B2517091783E
:1009600000296FD008006138192801D82039C9B290
:100970009170D178002965D008006138192800D815
:100980007EE0D170117900295CD008006138192807
:1009900000D87BE011715179002953D008006138EB
:1009A000192879D95171917900294BD00800613803
:1009B00019287AD99171D179002943D0080061387A
:1009C000192875D9D171117A00293BD008006138F6
:1009D000192873D91172517A002933D0080061386F
:1009E000192871D95172917A00292BD008006138E9
:1009F000192872D99172D17A002923D00800613860
:100A000019286DD9D172117B00291BD008006138DB
:100A100019286BD91173517B002913D00800613854
:100A2000192869D95173917B00290BD008006138CE
:100A3000192801D82039C9B29173D17B002901D07E
:100A40000021D173BA2189005A5A01325A52AEE6B6
:100A5000049C022079060010340400004D060010AA
:100A60003C040000F505001019060010E602000025
:100A70000CE00010650B001014E00010C10B00101A
:100A80002039C9B27DE72039C9B2CDE62039C9B2D3
:100A900080E72039C9B2D0E62039C9B282E72039CF
:100AA000C9B2D3E62039C9B2D9E62039C9B281E743
:100AB0002039C9B286E72039C9B2D9E62039C9B28E
:100AC00088E72039C9B2DCE62039C9B28AE7203983
:100AD000C9B2DFE62039C9B2E5E62039C9B289E7F3
:100AE0002039C9B28EE72039C9B2E5E62039C9B24A
:100AF00090E72039C9B2E8E62039C9B292E7203937
:100B0000C9B2EBE610B5034C20706160FFF71CFD25
:100B1000207210BD049C0220030010B50A00034996
:100B200008781900FFF73CFD10BDC046049C022068
:100B30000FB4802110B582B0094C04AB04CB200067
:100B40004900019306F0DAF82300113B020021006E
:100B50001878FFF725FD02B010BC08BC04B0184798
:100B6000159C0220F0B5C646BA27114B00B51800F7
:100B70009846FFF7DDFF0F48FFF7DAFF0E4EBF0084
:100B8000F35B002B0ED0BB2300249B00F51828003C
:100B9000FFF7CEFF4046FFF7CBFFF35B0134143580
:100BA000A342F4DC0548FFF7C3FF80BCB846F0BDA4
:100BB00010DF001018E00010049C022038E0001044
:100BC000F0B5DE4657464E464546E0B5038885B04B
:100BD000002B6FD04468012B29D10022002120680E
:100BE0000BF088FD07003548FFF7A2FF10230093A4
:100BF000334BB9469A46334B002403269B46B846EE
:100C00000CE0434650465959FFF792FF330023400A
:100C1000032B25D0009B01349C421ADAA500264202
:100C2000EFD1434628485919FFF782FFE9E7002230
:100C3000002160680BF05EFD00220500009000219D
:100C400020680BF057FD07001C48FFF771FF002DCF
:100C5000CEDC05B0F0BCBB46B246A946A046F0BD0E
:100C60001A48FFF765FF10234B4401934B46A146FA
:100C70001C000422210003A807F08CF903AD04AF87
:100C800029780B00203B5E2B10D81148FFF750FF4E
:100C90000135AF42F4D1019B0434A342E9D12300D2
:100CA0000C484C469946FFF743FFB3E75846FFF719
:100CB0003FFFEDE70848FFF73BFFCAE76CE0001095
:100CC00080E0001090E0001074E0001088E0001058
:100CD0008CE0001094E0001058E00010F0B5D6460B
:100CE0004F464646C0B5BC4C84B0257A002D06D18F
:100CF000280004B0E0BCBA46B146A846F0BD207852
:100D0000FFF730FC0028F3D02078FFF735FC6B4666
:100D1000D871237C0600002B00D046E11B2800D1AF
:100D2000C0E100D96AE1082800D18CE10D2800D08B
:100D300062E2AA4BE35C002B00D126E1CB235B00EF
:100D4000E65C0F3370018019400080192018FF33D2
:100D500099304322E118FF3007F01CF99822FF3246
:100D6000A35C032B01D80133A35496230122FF3344
:100D7000E654933BFF3B01361E409433FF33E65469
:100D8000023B8926E25400231432FF327600A3503E
:100D9000A353A9239B009846914FA0443900404695
:100DA00002AA0BF0FDFB002800D1D6E28D4B0026F5
:100DB0009C46E044330042469B00D0500136390047
:100DC000002002AAB6B20BF0EBFB0028F2D1474696
:100DD0008923153FFF3F5B00FE52002E00D1D4E077
:100DE0008148FFF7A5FE8A235B00FB581A78002A8A
:100DF00000D199E011006139192901D8203AD2B205
:100E00001A705A78002A00D18EE011006139192930
:100E100001D8203AD2B25A709A78002A00D183E0E1
:100E200011006139192901D8203AD2B29A70DA78C2
:100E3000002A79D011006139192901D8203AD2B29B
:100E4000DA701A79002A6FD011006139192901D896
:100E5000203AD2B21A715A79002A65D0110061394C
:100E6000192901D8203AD2B25A719A79002A5BD056
:100E700011006139192901D8203AD2B29A71DA7970
:100E8000002A51D011006139192901D8203AD2B273
:100E9000DA711A7A002A47D011006139192901D86C
:100EA000203AD2B21A725A7A002A3DD01100613922
:100EB000192901D8203AD2B25A729A7A002A33D02C
:100EC00011006139192901D8203AD2B29A72DA7A1E
:100ED000002A29D011006139192901D8203AD2B24B
:100EE000DA721A7B002A1FD011006139192901D842
:100EF000203AD2B21A735A7B002A15D011006139F8
:100F0000192901D8203AD2B25A739A7B002A0BD001
:100F100011006139192901D8203AD2B29A73DA7BCB
:100F2000002A01D00022DA73BA239B00E35A9846C4
:100F3000002B2AD08A235B00E35800269946BB2366
:100F40009B00E71803E00136143746451DDA3900E7
:100F500048460AF05FFA0028F5D189235B00E35A7E
:100F6000224A013BA352220086231932FF32DB00C2
:100F7000E250BF22920094461C4BE018B3009B192C
:100F80009B00E31863441B6898470023134A1849E1
:100F9000A354184AA354413AA3542078FFF70EFBF8
:100FA00020781549FFF70AFB237C032B00D17CE056
:100FB0000DD8012B76D0022B01D103232374637A41
:100FC000002B00D194E62000FFF76CFB90E6042B89
:100FD000F5D100232374F2E7049C0220E60200000E
:100FE0009CE0001070FEFFFF10DF00102C040000DA
:100FF000A4E00010E5020000A8E000107F2800D067
:10100000FAE0D74BD74AE05CA65CB042D7D2321A9E
:10101000D2B2012A09D0D44B013AC118013B9C46F7
:101020006044611820180CF0EBFE0022CD4B013E0D
:10103000F6B2E654423BA619F2542078CB49FFF7AA
:10104000BDFA237CB1E7C74AA65C002E00D133E18C
:10105000C349675C002FB2D0BE4205D1013EF6B253
:10106000A654A119423A8B54B74212D2A9239B002D
:10107000F918BF4BF21BF818D2B2611820180CF007
:10108000BFFE0022B74B013EF6B2E654A619423B22
:10109000F254B34B013FE7542078B649FFF78EFA7C
:1010A000237C82E70223237489E7002323746B46A1
:1010B000DB79442B00D1ECE0432B00D1D4E0412B71
:1010C00041D19823FF33E35C002B34D0A44BE25C86
:1010D000002A00D011E1A34BE25C002A00D007E116
:1010E000CA235B00E35C002B00D0EBE09623FF33C8
:1010F000E0569823FF33E15C4018013805F07EFE8E
:101100009623FF33E1540A00FF210A405101891858
:101110004900891861181033FF3399314322E018D0
:10112000FF3106F037FF8F4BE25C8D4BE25400221B
:10113000523BFF3BE2549049904BCB181878FFF795
:101140003DFA6B46DB79422B38D19823FF33E35CC1
:10115000002B2BD0824BE25C002A00D0D7E0814BE1
:10116000E25C002A00D0CDE096269823FF36A057F7
:10117000FF33E15C013005F041FE0A00A155FF217B
:10118000A9230A40510189184900891861189B0058
:1011900099314322E018FF3106F0FCFE714BE25C0E
:1011A0006F4BE2540022523BFF3BE2547249734BB7
:1011B000CB181878FFF702FA6B46DB79312B0BD18D
:1011C000674E2078A25D6E49FFF7F8F90023A3551A
:1011D000043323746B46DB79342B00D0EFE6604F89
:1011E000604EE25DA35D9A4279D39A426ED85C4A22
:1011F000A35404232374E2E6B9225A4B9200984682
:10120000E35CA25C5F1C974200DBD8E6544A92463E
:10121000A25C9146934200D17EE000D8CFE65248CE
:101220004A46A92184469A1A8900D2B259186344C1
:10123000981A891A611820180CF0E2FDA9234A4671
:101240009B00A218D654474AFFB2A7544A46511CE5
:10125000434AE719A1540022FA5420783200494940
:10126000FFF7ACF9237CA0E63D493E48625C205C78
:10127000904200D8A3E6013262546946424A8B721A
:101280000A812078032202A9FFF78AF96B46DB79ED
:1012900015E73349625C002A00D190E6013A6254B6
:1012A0006946394A8B720A812078032202A9FFF726
:1012B00077F96B46DB79FFE6294BE75C002F00D11D
:1012C0007DE6E6E6CB235B00E05612E7D21A2078F3
:1012D0002B4992B2FFF772F9224BE35C87E79A1A27
:1012E00092B220782949FFF769F9E25DA35D7CE7B6
:1012F00020782749FFF762F9F2E620782049FFF7C6
:101300005DF9E8E620782249FFF758F92CE72078C4
:101310001B49FFF753F922E76B460122D91D2078BC
:10132000FFF73EF95346E25C6B46A921DE7989005E
:10133000A3185E5443460132D2B240469146E35C64
:1013400052460133DBB223544846A0540020E21831
:1013500050544B4586D95F1C61E7A05315E6C04643
:10136000E5020000E6020000A5020000B0E0001067
:10137000A3020000B8E00010A89E02205CFDFFFF61
:10138000CCE00010C0E000101B5B0000DCE00010AF
:10139000D4E00010044B10B51878FFF7E3F843428F
:1013A0005841C0B210BDC046049C0220BA22F8B514
:1013B000634E9200B25A03000F0000200F2A00D99A
:1013C000F8BD9500AD18BB22AD009200AC183419E1
:1013D000190020000AF062F8BF239B009C46751993
:1013E00065442F602378002B00D181E01A00613A18
:1013F000192A01D8203BDBB223706378002B77D009
:101400001A00613A192A01D8203BDBB26370A37835
:10141000002B6DD01A00613A192A01D8203BDBB2AB
:10142000A370E378002B63D01A00613A192A66D9B9
:10143000E3702379002B5BD01A00613A192A61D935
:1014400023716379002B53D01A00613A192A5CD9B1
:101450006371A379002B4BD01A00613A192A57D92E
:10146000A371E379002B43D01A00613A192A52D9AB
:10147000E371237A002B3BD01A00613A192A4DD927
:101480002372637A002B33D01A00613A192A48D9A3
:101490006372A37A002B2BD01A00613A192A43D920
:1014A000A372E37A002B23D01A00613A192A3ED99D
:1014B000E372237B002B1BD01A00613A192A39D919
:1014C0002373637B002B13D01A00613A192A34D995
:1014D0006373A37B002B0BD01A00613A192A01D841
:1014E000203BDBB2A373E37B002B01D00023E3732B
:1014F000BA229200B35A01200133B35260E7203B75
:10150000DBB295E7203BDBB29AE7203BDBB29FE7FB
:10151000203BDBB2A4E7203BDBB2A9E7203BDBB2F8
:10152000AEE7203BDBB2B3E7203BDBB2B8E7203BC2
:10153000DBB2BDE7203BDBB2C2E7203BDBB2C7E753
:10154000049C0220F8B503880600012B09D0394815
:10155000FFF7EEFA3848FFF7EBFA3848FFF7E8FAFA
:10156000F8BD0020364973699847041E40D133887E
:10157000012BECD10020334973699847002831D002
:101580000025314F0CE07B885C1BAB420CD0402C1B
:1015900000D94024BB6821005819FFF7BDFA2D1966
:1015A000FFF7F8FE0028EED13388012BD8D10020B8
:1015B0007369264998470028D2D00025244E0CE0B4
:1015C00073885C1BAB42CBD0402C00D94024B3685D
:1015D00021005819FFF7A0FA2D19FFF7DBFE0028AC
:1015E000EED1BDE73388012B1CD0002CB8D1AEE77B
:1015F000154D18482988FFF79BFA69881648FFF7A8
:1016000097FA1648FFF794FA114D15482988FFF705
:101610008FFA69881348FFF78BFA3388012B00D0C3
:101620009EE7A7E700207369084998470028DCD0A7
:10163000C3E7C046E4E00010F0E00010FCE000105A
:1016400008E1001060E1001024A5022068E100100C
:1016500030A5022010E1001024E100104CDF001042
:1016600038E100104CE10010802200210A4B0B48A9
:10167000D20010B519605A609860094B09485A6049
:10168000094A19609A600122084B09491A70FFF74C
:101690008DFE012010BDC04624A50220009402202A
:1016A00030A5022070E1001000980220CDAA02208F
:1016B00045150010431E9841014B18707047C046F5
:1016C00038060020012210B5034B1870034B1A7026
:1016D000FEF73AFF10BDC046D4AA0220CFAA0220CE
:1016E0000FB4F0B53B4B85B01B78002B04D105B08F
:1016F000F0BC08BC04B018478021374E0BAB30005B
:101700000A9A4900039305F0F9FA344B05001B7857
:10171000002B03D0324B1B78002B2AD1314B1B7886
:10172000002B2DD12F0008372F4CE088A288030012
:1017300008335D19954204D900230020E380BA42A2
:10174000D5D3A268238894463900284A604400967D
:1017500005F0C0FA238882B201332380E388A18890
:10176000D318E380638818188842C0DCD2186280DE
:10177000BDE71F4B2A0031001878FEF711FFCDE7B7
:101780001C4CE088A288030008335B1993421ED9E1
:101790002F0000230837E380BA42C5D30020A26897
:1017A000238894463900114A6044009605F092FA65
:1017B000238882B201332380E388A188D318E38091
:1017C000638818188842AFDCD2186280ACE72F001B
:1017D0000837E4E7CDAA022054A50220CFAA0220B0
:1017E000390600203806002030A5022074E10010E0
:1017F000D4AA022024A50220F8B5002257464E465E
:10180000DE464546038881469246E0B5012B6ED000
:10181000022B17D0032B00D196E05346002B05D0A6
:10182000F0BCBB46B246A946A046F8BD5C48FFF7EF
:101830007FF904215B48FFF77BF904215A48FFF741
:1018400077F9EDE74B46002058495B699847002837
:1018500000D182E04B4601209B689847FF24C3B229
:101860000440E500042B10D987E0D0231B065A68FA
:101870004F4B5048EB582100DA40130001221A4028
:10188000FFF756F96420FEF7BFFDFFF783FD002840
:10189000EBD14B461B88032BC2D14B460020464957
:1018A0005B6998470028BBD04B4601209B6898474E
:1018B0004B4604009B6802209847E3B2042B6BD888
:1018C000FF21C3B22140002B4AD00122384BCC006B
:1018D000E5581B195B79AA40002B4AD1D0231B067F
:1018E0009A61FF2202403548FFF722F998E74B46FC
:1018F000002033495B6998478246002821D0D027D1
:10190000304B3F069846304B9B46FFF743FD00287F
:1019100017D0274C012526002836236879684046D1
:10192000D94008342940FFF703F9B442F5D15846AD
:10193000FFF7FEF86420FEF767FDFFF72BFD002898
:10194000E7D14B461B8863E74B4600201A495B6989
:101950009847002800D160E7A6E74B461B8859E767
:101960000122134BCC00E5581B199B79AA40002B90
:10197000B4D0D0231B065A61B3E70E4D07E0280010
:1019800000222100FFF7D4F86420FEF73DFDFFF7A9
:1019900001FD0028F3D17CE7FF212140A1E7C046EB
:1019A000C0E10010CCE10010E0E1001088E100107F
:1019B0001CE2001090E10010A4E10010ACE1001066
:1019C0007CE1001084E100104CDF0010F8B5282302
:1019D0004746CE469946264BD02680B51925012785
:1019E0009846244C3606A144280002F023FA2379B5
:1019F000052B39D842469B00D3589F46012200212F
:101A0000280002F0EFF93B00AB407362E279002A54
:101A100008D06279002A08D10834B3614C4508D057
:101A20002568E1E7A279002AF6D0083473614C45B5
:101A3000F6D111491148FFF7B9FC0120C0BCB946E5
:101A4000B046F8BD0022002107E000220121D7E7BF
:101A50000122002101E000220121280002F0C2F948
:101A60003B00AB40B362D1E73B00E279AB40CEE74D
:101A700004E200101CE20010F9170010FCE1001055
:101A800004280DD801220C4BC000002909D0C158F0
:101A9000181843798A40002B09D0D0231B065A61BD
:101AA0007047C158181883798A40002BF5D1D0238C
:101AB0001B069A61F4E7C0461CE20010A022094B05
:101AC000D205D05801221100074B10B59C68A140E7
:101AD000014206D0054801605A701B69002B00D0F6
:101AE000984710BD0C04000064A602200C2400508E
:101AF0000022034B034901201A6119609A80704744
:101B000064A6022000010008002370B5002801D05F
:101B1000180070BD264C27482749606109F05EF81F
:101B200001210A2002F046F901210B2002F042F9BE
:101B3000E3786279013B9201134322796169D20112
:101B40001343CF22086801254340134080225201ED
:101B50000A43136001210A2002F05CF901210B20E5
:101B600002F058F9012009F00DF9144963698C4617
:101B7000634459424B41802109038C461049C202FB
:101B80001B0463440A401343152213432A00824076
:101B9000E3600C4BA0600C491A600B2003F0B8FB0B
:101BA00001210B2003F092FB01232570B0E7C04612
:101BB00064A6022000000440809698000000FCBF4C
:101BC000FF7F00FF04240050BD1A001030B5440010
:101BD0001B4A2318DB00D55C002D22D0022928D017
:101BE00006D800291ED00121D3188025998006E04F
:101BF000D31803291AD102218025FF31998020189A
:101C0000C0001218D3785179506989018022013BB4
:101C10000B43CF2104682B43634052010B40024326
:101C2000136030BDD31800259980E8E71D79ED01D8
:101C3000E5E78021D318490000259980DFE7C046F9
:101C400064A60220430018180C4AC000835C70B5DB
:101C50000C00002B11D01018C17002794179D2010B
:101C6000802389011143CF224569013C2E6821431D
:101C700071405B0111402B43196070BD64A60220C6
:101C800043001818054AC000835C10B5002B03D030
:101C90001018406909F01EF810BDC04664A6022065
:101CA00043001B18054ADB00995C002010B5002991
:101CB00003D0D318586909F057F810BD64A6022064
:101CC00070B50F2543001B180B4ADB0086B09B5CE8
:101CD0006D44040029700020002B0AD017260A2327
:101CE0006E440093320029002000093B0CF078F884
:101CF000307806B070BDC04664A60220F8B54746ED
:101D0000CE46450080B52C181F001A4BE4009846BB
:101D10001B5D8146002B0FD04444A0686369860197
:101D2000A020C00584460833664431607360E368D0
:101D3000B260F36000236370FEF76AFB0600002FB9
:101D400015D04D44EC00A146C14443461B5D002B19
:101D50000DD04B465D78002D09D1FEF759FB801B55
:101D6000B842F2D92800C0BCB946B046F8BD01253A
:101D7000F8E7C04664A6022043001818034AC000D2
:101D8000835C002B01D010180161704764A602200B
:101D900070B5FEF73DFB0E4D0E4C2B68C01A20604F
:101DA000FEF736FB2860FEF733FB0B4B1B68C01AAF
:101DB0000A4B18602368002B06D0FA2021688000A7
:101DC00005F044F8064B18600022064B1A7070BDEF
:101DD000F0A00220F4A00220DCA00220D8A0022063
:101DE000ECA00220D2AA0220F0B5C6461F4D00B5D5
:101DF0002B78002B0FD140221D4C00210020EF3307
:101E0000FF32A668B047012396212B700022A369F8
:101E1000184849029847FEF7FBFA174C0600174F7F
:101E20000AE02B78002B10D00120FEF7EDFAFEF728
:101E3000EFFA801B632805D82368002BF1DC2B7890
:101E4000002BF1D180BCB846F0BDFEF7E1FA3B684B
:101E50002168C31AFA208000984604F0CFFF80451D
:101E6000E2D3FEF7D5FA3860ECE7C046D2AA0220EA
:101E700004A50220403300203C060020DCA0022004
:101E8000A02310B55B00984209D2EF2907D8044B74
:101E90001C688B005918890108184000025310BDB6
:101EA00040A502202B4BF0B5C64698466423424617
:101EB00000B5137001F0BCFD274C284FA0263870E8
:101EC000200001F0BFFD6369254898479622002550
:101ED000244C00212000920206F056F8224B760096
:101EE0001C600024ADB2A4B22100002201342800FD
:101EF000FFF7C6FFA3B224B2F02BF4D10135ABB289
:101F00002DB2B342EDD1FEF783FA3B780400002BEB
:101F100001D0FFF769FF1548FFF7E2FBFEF778FAFB
:101F2000011B1348FFF7DCFB43461B78642B02D0F0
:101F300064234246137001210320FFF7A1FD3C7882
:101F4000002C03D00B490C48FFF730FA200080BC6E
:101F5000B846F0BD3A06002004A50220CEAA022011
:101F6000911D00104033002040A5022044E20010E3
:101F70004CE20010BD27001060E200109622054BD5
:101F800092021B6880B29A18188002339342FBD1E8
:101F90007047C04640A50220014B18607047C046FC
:101FA0003C060020034B10B51B78002B01D0FFF737
:101FB0001BFF10BDCEAA0220F0B54E46574645463F
:101FC000DE46E0B50D00040083B00CA90988D743B4
:101FD0008946591BC81709184140101BC61780199C
:101FE0007040E643FF17F61734401740EE43DA43DC
:101FF000F617D2178C462E401340814205DD3A0079
:102000001F001300220034001600BC4205DD320020
:102010001E00130022003C0017003A1B95B2AA468E
:102020009D1BE9176D184D4012B2A846D50FAD188B
:102030006D10B3423CDD0123019343469BB29846A9
:1020400084451DDCB3B2A4B24A46190020009B4669
:10205000FFF716FF4346EB1A9AB21DB21B0404D5D4
:10206000019E52445E4436B215B2013424B2A742F6
:10207000E8DA03B0F0BCBB46B246A946A046F0BDC4
:10208000B3B2A4B24A46180021009B46FFF7F8FEFF
:102090004346EB1A9AB21DB21B0404D5019E52446A
:1020A0005E4436B215B2013424B2A742E8DAE0E762
:1020B000BC42DEDC014B0193BFE7C046FFFF0000DE
:1020C000F0B5C64600B582B00F0008A909881618F9
:1020D00004008846B0420EDA013BDB191DB24346CC
:1020E000220020000134009339002B0024B2FFF7B6
:1020F00063FFB442F3DB02B080BCB846F0BDC0461B
:1021000008B4F0B5DE46574645464E46E0B5D2B077
:102110005BAB924604CB0290009112A8FF2107937B
:1021200004F0ECFDC54BC64A1B7804909B009B58FD
:1021300098465B68002B63D0031E43DD12A88446DB
:1021400041466344497842460493029B80269B465D
:10215000127803903602039B1B7800291ED0203B87
:102160000193002399464046019B40684B434B44F2
:102170005B001D5A002A11D00024009F4F44BFB2BB
:102180002B00A340334227D101349442F8D3434675
:10219000597801239C46E1444945E4D893445B4681
:1021A000A020D3184000834206DD009B9C468C444F
:1021B00063460093029B9B46039B04980133039361
:1021C0009842C8D152B0F0BCBB46B246A946A04620
:1021D000F0BC08BC01B018475B46181952463900DC
:1021E00080B2FFF74DFE43461A7801349442C7D3BC
:1021F0004346597801239C46E1444945B3D8CDE78D
:102200000028DFDD029B80279B4600230593059B6A
:1022100012A89C4608A9604401F062FD06AB5B89E8
:102220009846022B00D902239BB299464346002BC5
:1022300000D1FCE06B461C8808AE230010339BB233
:1022400001935B4601339BB203933CE06B001F425A
:1022500047D1AB001F424CD1EB001F4253D12B01A1
:102260001F425AD16B011F4261D1AB011F4268D19D
:10227000EB076FD44346012B1FD90723F356F5799B
:10228000002B00DACBE06B001F4200D0BFE0AB00B8
:102290001F4200D0B3E0EB001F4200D0A7E02B01AB
:1022A0001F4200D09BE06B011F4200D08FE0AB01CA
:1022B0001F4200D083E0EB0754D40134019BA4B249
:1022C0004E449C425BD00623F356B579002BBDDA11
:1022D0005B46524698B22100FFF7D2FD6B001F42C9
:1022E000B7D0524621000398FFF7CAFDAB001F424A
:1022F000B2D05B46981C5246210080B2FFF7C0FD69
:10230000EB001F42ABD05B46D81C5246210080B286
:10231000FFF7B6FD2B011F42A4D05B46181D5246A5
:10232000210080B2FFF7ACFD6B011F429DD05B46E0
:10233000581D5246210080B2FFF7A2FDAB011F429B
:1023400096D05B46981D5246210080B2FFF798FD5B
:10235000EB078FD55B46D81D5246210080B2FFF7B0
:102360008FFD87E758460F302100524680B2FFF7B5
:1023700087FD0134019BA4B24E449C42A3D106AB1D
:102380005A89012A55DD10239C46E344A0215B4471
:1023900049008B4204DD009B10330093029B9B4657
:1023A00006AB9B89042B00D10CE7059B9C4694440B
:1023B0006346049A0593624500DD28E702E7584624
:1023C0000E305246210080B2FFF75AFD73E758469F
:1023D0000D305246210080B2FFF752FD67E75846A4
:1023E0000C305246210080B2FFF74AFD5BE75846A9
:1023F0000B305246210080B2FFF742FD4FE75846AE
:102400000A305246210080B2FFF73AFD43E75846B2
:1024100009305246210080B2FFF732FD37E75846B7
:1024200008305246210080B2FFF72AFD2BE706ABA9
:102430005A8908239C46E344A8E7C046400600208A
:10244000B8E200100901024B091849005A527047BE
:1024500040310020F0B5CE464746A02480B5640048
:10246000A0422FD2EF292DD8DF438B005918174BEC
:102470003F261D68FB43DBB298468901081891B2DC
:10248000520932405A4340002B5A1F2491469C4621
:102490004246CB0A2140534351436246FFB21440A7
:1024A0007C436418D10A52111640794377433A00AD
:1024B000C9184A44090A240ACB02120A23435201CA
:1024C00013432B52C0BCB946B046F0BD40A5022014
:1024D000F0B5DE4657464E464546E0B5E3B00690B9
:1024E0000891002010210C900D91002000210E90E9
:1024F0000F9110211C1C10916CABAC49099204CBBC
:10250000119122A8FF210B9304F0F8FB852107907D
:10251000C905201C05F04EFC002800D042E1F62140
:10252000201C890505F007FC0390079B002B00DCAD
:10253000E0E00023059304930293059B22A89C46A8
:1025400018A9604401F0CCFB0AAB5B8F1A1C022B6C
:1025500000D9022292B293461022019270320027D3
:102560009046002B00D1FCE0002399465B4618AA58
:1025700092467B4306339A444B464A46DD00534617
:1025800000249E5CADB206E0FF2239000134FFF763
:1025900059FF082C0CD043462341281980B21E4213
:1025A000F2D1002239000134FFF74CFF082CF2D1A0
:1025B00001239C46E1444B469BB29B45DCD8019BE2
:1025C0000137013B9BB2BFB20193002BCCD10698DF
:1025D00005F002FC029D041C280005F0FDFB039998
:1025E00005F0A9FB211C05F08FFB05F017FC07B2D5
:1025F000089805F0F1FB0AAA528F061C9146012AA1
:1026000000DCC5E02B008321103302931023C905A1
:102610000C93039B181C984605F08DFB051C380095
:1026200005F0DAFB291C05F06FFB614905F0BAFBE8
:10263000002800D076E0049805F0CEFB414605F076
:102640007AFB311C05F060FB05F0E8FB03B298460D
:1026500000230024281C1493159405F0DFFB12902E
:1026600004000D9805F0B8FB039905F064FB05F034
:10267000D5FB402316934F4B13901793002C01D199
:1026800001231293002801D1012313934A4B12A96D
:102690001B780CA8012B00D181E000F0ABFA139B52
:1026A0000193002B1BDD099B00259A46129A002AF4
:1026B00015DD434600245E19B6B2159B3D490193D2
:1026C000EB189B011B195B00CB5A002B19D101346D
:1026D0009442F2DB139B013501939D42E7DB0AAB89
:1026E0009B8F042B06D0059B079A4B4405939A4277
:1026F00000DD22E763B0F0BCBB46B246A946A04667
:10270000F0BD381952463100DBB280B2FFF7A2FEAD
:10271000129A01349442D0DB139B013501939D4200
:10272000C5DBDCE7049B201C10330493039B191CBE
:10273000984605F000FB211C05F0E6FA05F06EFB5B
:1027400007B2049805F048FB414605F0F4FA311C45
:1027500005F0DAFA05F062FB03B29846069B029395
:1027600076E7069805F038FB041C029805F034FB68
:10277000039905F0E0FA211C05F0C6FA05F04EFBBE
:1027800007B2089805F028FB0AAB5B8F061C994638
:102790008221029BC90508330293082338E700F021
:1027A0004DF97CE78123DB050393BEE64031002031
:1027B0000000A04340110020D3AA0220F0B54E46ED
:1027C000DE4657464546E0B50388060083B0012B38
:1027D0001FD0022B00D0D1E00020824973699847B6
:1027E000002800D1CAE0B36801209847031CC0B29A
:1027F000642800D9D1E07C49DAB20878904200D050
:102800000B70002A00D1E8E001210320FFF738F91E
:10281000BAE00020754973699847002800D1BAE0F2
:102820000322734B734F1A70734B9A46734B99463E
:10283000724CFEF7AFFD002800D1BBE03B68002BD7
:1028400000DCACE02378A046002BF2D1FDF7E0FDE0
:102850006B4B1D683968451BFA2080009B4604F0CD
:10286000CDFA8542E5D3FDF7D3FD5B461860002025
:10287000FFF784FB802200211920624BD200FFF772
:102880003FFC614B10211B680020604A0093604BA5
:10289000FFF736FC5F4C2021236800205B4A009341
:1028A0005D4BFFF72DFC5D4A2368126830219B1AAF
:1028B0000020564A00935A4BFFF722FC8022594BC6
:1028C000782100930020584BD200FFF701FE00252D
:1028D0004624ADB2F822A4B221002800013412022D
:1028E000FFF7CEFAA3B224B2502BF3D10135ABB22D
:1028F0002DB20A2BECD10A254624ADB28022A4B217
:10290000210028000134D200FFF7BAFAA3B224B2A2
:10291000502BF3D10135ABB22DB2142BECD11425D1
:102920004624ADB2A4B221001F2201342800FFF7D3
:10293000A7FAA3B224B2502BF4D10135ABB22DB219
:102940001E2BEDD153461B78002B00D170E7434678
:102950001B78002B00D06BE74022344C0021002074
:10296000A568EF33FF32A847424601239621137032
:1029700049020022A3692E48984759E72D48FEF7DF
:10298000D7F82D48FEF7D4F803B0F0BCBB46B246EA
:10299000A946A046F0BD33881BE764232BE74B46CE
:1029A0001B78C846002B00D161E7FEF7F3FC002836
:1029B00000D043E7FFF7E2FA53461B78002B01D023
:1029C000FFF712FA3388022BDED100200549736924
:1029D0009847002800D006E7D6E700210320FFF73C
:1029E0004FF8D1E7B4E200103A06002064E200108C
:1029F000400600203C060020CEAA0220D2AA0220D7
:102A0000DCA002206CE20010ECA00220FFFF00001E
:102A10007CE20010F4A0022084E20010D8A0022082
:102A20008CE2001064DE00100000C04104A502200A
:102A30004033002098E20010A4E20010F0B5DE461A
:102A400057464E464546E0B506684A680B6891B061
:102A50000400701E09920D00079305F0BDF9079B55
:102A6000071C581E05F0B8F9011C381C05F04FF979
:102A70008F21C90505F05FF905F008FA5B4B0022CC
:102A800004F030FC04F0A4FD04F0E4FC0290606863
:102A9000013805F0A1F9099A071C501E05F09CF9B0
:102AA000011C381C05F033F98F21C90505F043F9E5
:102AB00005F0ECF94D4B002204F014FC04F088FD05
:102AC00004F0C8FC23690A90002B00D126612B6911
:102AD0000893002B02D1079B2B610893AA68079BE0
:102AE0000899D3188B4201DD8B1A0793099B002BA1
:102AF00075DD0023089804930693EB6869694343E6
:102B00009B181A0094468B460593079B0F916344CC
:102B10005B009B4463690B9323690C93344B994688
:102B200043000E936B461B8D0D936B461B890393DD
:102B30000B9A049B94461F0C0C9B5F43DB195B00B4
:102B40007F0067449C44079B002B30DD049B0024DE
:102B50001B041B0C9A46059B254958000F9B984661
:102B600040446246230C5B00D25C9D1C4A430192A8
:102B70006246FE5C039B525D4E43C91A7B5D250491
:102B80002D0C6B435543019AF31890464A461B0A95
:102B90005343524645442D0A55435B191B0E03808F
:102BA000029B0230984689B244448345D9D10A98A1
:102BB00004998446089861448446049105994B46DB
:102BC000614405910E990D9A8C469B1A9BB2069A08
:102BD0009946099B01320692E3449342A8D111B071
:102BE000F0BCBB46B246A946A046F0BD0000E03F9F
:102BF000FFFF0000F0B5DE464E4645465746E0B5BD
:102C000003680A6885B00D0006001100180491469B
:102C1000029304F0F3F86B68441C70681900000418
:102C2000984604F0EBF8431C01932B690393002BA7
:102C300001DC4B4603933369002B00DD02934346CE
:102C4000002B32DD0023AC469B461D0000964B4610
:102C5000002B24DD009B58465F696346DB68039ABE
:102C6000EB1853430614624602989268464348465E
:102C700080189A18C318604640695B005200821899
:102C8000C018009B00219A460B149B195B00DB5B6C
:102C90000919138002328242F6D153460093019BF8
:102CA00001359A46D344A845D1D105B0F0BCBB4606
:102CB000B246A946A046F0BDA02040007047C046DD
:102CC000F0207047014B186001207047F8A00220E7
:102CD000012270B50D0004000A4B102100201A706B
:102CE000FEF7B0FF01210220FEF7CAFE00210120FD
:102CF000FEF7C6FE2A00002321000020FEF7FEFF9B
:102D0000012070BDD0AA0220084B10B51A78002A05
:102D100000D110BD0022012101201A70FEF7B0FE83
:102D2000034B1B68002BF4D09847F2E7D0AA02208F
:102D3000F8A00220F8B5070016000D0000200821B9
:102D40001C00FEF77FFF00210220FEF799FE002104
:102D50000120FEF795FE2A210020FEF7B1FF012198
:102D60000120FEF78DFE01210220FEF789FE0021E1
:102D70000120FEF785FE3912C9B20020FEF7A0FF40
:102D800001210120FEF77CFE01210220FEF778FEE2
:102D900000210120FEF774FEF9B20020FEF790FF3B
:102DA00001210120FEF76CFE01210220FEF768FEE2
:102DB00000210120FEF764FE3112C9B20020FEF7A7
:102DC0007FFF01210120FEF75BFE01210220FEF7BB
:102DD00057FE00210120FEF753FEF1B20020FEF75E
:102DE0006FFF01210120FEF74BFE00210220FEF7BC
:102DF00047FE00210120FEF743FE2B210020FEF7B5
:102E00005FFF01210120FEF73BFE01210220FEF7BA
:102E100037FE00210120FEF733FE2912C9B200203F
:102E2000FEF74EFF01210120FEF72AFE01210220BC
:102E3000FEF726FE00210120FEF722FEE9B2002067
:102E4000FEF73EFF01210120FEF71AFE01210220BC
:102E5000FEF716FE00210120FEF712FE2112C9B274
:102E60000020FEF72DFF01210120FEF709FE0121C0
:102E70000220FEF705FE00210120FEF701FEE1B26F
:102E80000020FEF71DFF01210120FEF7F9FD0021C2
:102E90000220FEF7F5FD00210120FEF7F1FD2C21B7
:102EA0000020FEF70DFF01210120FEF7E9FDF8BD2E
:102EB00010B50020FEF728FE00210020FEF786FE58
:102EC0000020FE49FEF7DCFE0020FD49FEF754FF1E
:102ED00001210220FEF7D4FD01210120FEF7D0FDE3
:102EE00000210420FEF7CCFD3220FDF78DFA0121F0
:102EF0000420FEF7C5FD00210220FEF7C1FD0021E0
:102F00000120FEF7BDFDEF210020FEF7D9FE0121D3
:102F10000120FEF7B5FD01210220FEF7B1FD0021E1
:102F20000120FEF7ADFD03210020FEF7C9FE0121BF
:102F30000120FEF7A5FD01210220FEF7A1FD0021E1
:102F40000120FEF79DFD80210020FEF7B9FE012142
:102F50000120FEF795FD01210220FEF791FD0021E1
:102F60000120FEF78DFD02210020FEF7A9FE0121C0
:102F70000120FEF785FD00210220FEF781FD0021E2
:102F80000120FEF77DFDCF210020FEF799FE0121F3
:102F90000120FEF775FD01210220FEF771FD0021E1
:102FA0000120FEF76DFD00210020FEF789FE0121C2
:102FB0000120FEF765FD01210220FEF761FD0021E1
:102FC0000120FEF75DFDC1210020FEF779FE012101
:102FD0000120FEF755FD01210220FEF751FD0021E1
:102FE0000120FEF74DFD30210020FEF769FE012192
:102FF0000120FEF745FD00210220FEF741FD0021E2
:103000000120FEF73DFDED210020FEF759FE0121D4
:103010000120FEF735FD01210220FEF731FD0021E0
:103020000120FEF72DFD64210020FEF749FE01215D
:103030000120FEF725FD01210220FEF721FD0021E0
:103040000120FEF71DFD03210020FEF739FE0121BE
:103050000120FEF715FD01210220FEF711FD0021E0
:103060000120FEF70DFD12210020FEF729FE0121AF
:103070000120FEF705FD01210220FEF701FD0021E0
:103080000120FEF7FDFC81210020FEF719FE012141
:103090000120FEF7F5FC00210220FEF7F1FC0021E3
:1030A0000120FEF7EDFCE8210020FEF709FE0121DA
:1030B0000120FEF7E5FC01210220FEF7E1FC0021E2
:1030C0000120FEF7DDFC85210020FEF7F9FD01213E
:1030D0000120FEF7D5FC01210220FEF7D1FC0021E2
:1030E0000120FEF7CDFC00210020FEF7E9FD0121C3
:1030F0000120FEF7C5FC01210220FEF7C1FC0021E2
:103100000120FEF7BDFC78210020FEF7D9FD01214A
:103110000120FEF7B5FC00210220FEF7B1FC0021E2
:103120000120FEF7ADFCCB210020FEF7C9FD0121F7
:103130000120FEF7A5FC01210220FEF7A1FC0021E1
:103140000120FEF79DFC39210020FEF7B9FD012189
:103150000120FEF795FC01210220FEF791FC0021E1
:103160000120FEF78DFC2C210020FEF7A9FD012196
:103170000120FEF785FC01210220FEF781FC0021E1
:103180000120FEF77DFC00210020FEF799FD0121C2
:103190000120FEF775FC01210220FEF771FC0021E1
:1031A0000120FEF76DFC34210020FEF789FD01218E
:1031B0000120FEF765FC01210220FEF761FC0021E1
:1031C0000120FEF75DFC02210020FEF779FD0121C0
:1031D0000120FEF755FC00210220FEF751FC0021E2
:1031E0000120FEF74DFCF7210020FEF769FD0121CB
:1031F0000120FEF745FC01210220FEF741FC0021E1
:103200000120FEF73DFC20210020FEF759FD0121A1
:103210000120FEF735FC00210220FEF731FC0021E1
:103220000120FEF72DFCEA210020FEF749FD0121D7
:103230000120FEF725FC01210220FEF721FC0021E0
:103240000120FEF71DFC00210020FEF739FD0121C1
:103250000120FEF715FC01210220FEF711FC0021E0
:103260000120FEF70DFC00210020FEF729FD0121C1
:103270000120FEF705FC00210220FEF701FC0021E1
:103280000120FEF7FDFBC0210020FEF719FD012102
:103290000120FEF7F5FB01210220FEF7F1FB0021E2
:1032A0000120FEF7EDFB23210020FEF709FD01219F
:1032B0000120FEF7E5FB0021022003E020A107002A
:1032C000092D0010FEF7DCFB00210120FEF7D8FBE2
:1032D000C1210020FEF7F4FC01210120FEF7D0FB04
:1032E00001210220FEF7CCFB00210120FEF7C8FBE4
:1032F00010210020FEF7E4FC01210120FEF7C0FBB5
:1033000000210220FEF7BCFB00210120FEF7B8FBE4
:10331000C5210020FEF7D4FC01210120FEF7B0FBFF
:1033200001210220FEF7ACFB00210120FEF7A8FBE3
:103330003E210020FEF7C4FC01210120FEF7A0FB86
:1033400001210220FEF79CFB00210120FEF798FBE3
:1033500028210020FEF7B4FC01210120FEF790FB9C
:1033600000210220FEF78CFB00210120FEF788FBE4
:10337000C7210020FEF7A4FC01210120FEF780FBFD
:1033800001210220FEF77CFB00210120FEF778FBE3
:1033900086210020FEF794FC01210120FEF770FB3E
:1033A00000210220FEF76CFB00210120FEF768FBE4
:1033B00036210020FEF784FC01210120FEF760FB8E
:1033C00001210220FEF75CFB00210120FEF758FBE3
:1033D000A8210020FEF774FC01210120FEF750FB1C
:1033E00000210220FEF74CFB00210120FEF748FBE4
:1033F0003A210020FEF764FC01210120FEF740FB8A
:1034000001210220FEF73CFB00210120FEF738FBE2
:1034100055210020FEF754FC01210120FEF730FB6E
:1034200000210220FEF72CFB00210120FEF728FBE3
:10343000B1210020FEF744FC01210120FEF720FB12
:1034400001210220FEF71CFB00210120FEF718FBE2
:1034500000210020FEF734FC01210120FEF710FBC3
:1034600001210220FEF70CFB00210120FEF708FBE2
:1034700013210020FEF724FC01210120FEF700FBB0
:1034800000210220FEF7FCFA00210120FEF7F8FAE5
:10349000B6210020FEF714FC01210120FEF7F0FA0E
:1034A00001210220FEF7ECFA00210120FEF7E8FAE4
:1034B00008210020FEF704FC01210120FEF7E0FABC
:1034C00001210220FEF7DCFA00210120FEF7D8FAE4
:1034D00082210020FEF7F4FB01210120FEF7D0FA43
:1034E00001210220FEF7CCFA00210120FEF7C8FAE4
:1034F00027210020FEF7E4FB01210120FEF7C0FA9E
:1035000000210220FEF7BCFA00210120FEF7B8FAE4
:10351000F2210020FEF7D4FB01210120FEF7B0FAD2
:1035200001210220FEF7ACFA00210120FEF7A8FAE3
:1035300000210020FEF7C4FB01210120FEF7A0FAC4
:1035400000210220FEF79CFA00210120FEF798FAE4
:1035500026210020FEF7B4FB01210120FEF790FA9E
:1035600001210220FEF78CFA00210120FEF788FAE3
:1035700001210020FEF7A4FB01210120FEF780FAC3
:1035800000210220FEF77CFA00210120FEF778FAE4
:10359000E0210020FEF794FB01210120FEF770FAE4
:1035A00001210220FEF76CFA00210120FEF768FAE3
:1035B0000F210020FEF784FB01210120FEF760FAB5
:1035C00001210220FEF75CFA00210120FEF758FAE3
:1035D00031210020FEF774FB01210120FEF750FA93
:1035E00001210220FEF74CFA00210120FEF748FAE3
:1035F0002B210020FEF764FB01210120FEF740FA99
:1036000001210220FEF73CFA00210120FEF738FAE2
:103610000C210020FEF754FB01210120FEF730FAB7
:1036200001210220FEF72CFA00210120FEF728FAE2
:103630000E210020FEF744FB01210120FEF720FAB5
:1036400001210220FEF71CFA00210120FEF718FAE2
:1036500008210020FEF734FB01210120FEF710FABB
:1036600001210220FEF70CFA00210120FEF708FAE2
:103670004E210020FEF724FB01210120FEF700FA75
:1036800001210220FEF7FCF900210120FEF7F8F9E4
:10369000F1210020FEF714FB01210120FEF7F0F9D3
:1036A00001210220FEF7ECF900210120FEF7E8F9E4
:1036B00037210020FEF704FB01210120FEF7E0F98D
:1036C00001210220FEF7DCF900210120FEF7D8F9E4
:1036D00007210020FEF7F4FA01210120FEF7D0F9BE
:1036E00001210220FEF7CCF900210120FEF7C8F9E4
:1036F00010210020FEF7E4FA01210120FEF7C0F9B5
:1037000001210220FEF7BCF900210120FEF7B8F9E3
:1037100003210020FEF7D4FA01210120FEF7B0F9C1
:1037200001210220FEF7ACF900210120FEF7A8F9E3
:103730000E210020FEF7C4FA01210120FEF7A0F9B6
:1037400001210220FEF79CF900210120FEF798F9E3
:1037500009210020FEF7B4FA01210120FEF790F9BB
:1037600001210220FEF78CF900210120FEF788F9E3
:1037700000210020FEF7A4FA01210120FEF780F9C4
:1037800000210220FEF77CF900210120FEF778F9E4
:10379000E1210020FEF794FA01210120FEF770F9E3
:1037A00001210220FEF76CF900210120FEF768F9E3
:1037B00000210020FEF784FA01210120FEF760F9C4
:1037C00001210220FEF75CF900210120FEF758F9E3
:1037D0000E210020FEF774FA01210120FEF750F9B6
:1037E00001210220FEF74CF900210120FEF748F9E3
:1037F00014210020FEF764FA01210120FEF740F9B0
:1038000001210220FEF73CF900210120FEF738F9E2
:1038100003210020FEF754FA01210120FEF730F9C0
:1038200001210220FEF72CF900210120FEF728F9E2
:1038300011210020FEF744FA01210120FEF720F9B2
:1038400001210220FEF71CF900210120FEF718F9E2
:1038500007210020FEF734FA01210120FEF710F9BC
:1038600001210220FEF70CF900210120FEF708F9E2
:1038700031210020FEF724FA01210120FEF700F992
:1038800001210220FEF7FCF800210120FEF7F8F8E4
:10389000C1210020FEF714FA01210120FEF7F0F803
:1038A00001210220FEF7ECF800210120FEF7E8F8E4
:1038B00048210020FEF704FA01210120FEF7E0F87C
:1038C00001210220FEF7DCF800210120FEF7D8F8E4
:1038D00008210020FEF7F4F901210120FEF7D0F8BD
:1038E00001210220FEF7CCF800210120FEF7C8F8E4
:1038F0000F210020FEF7E4F901210120FEF7C0F8B6
:1039000001210220FEF7BCF800210120FEF7B8F8E3
:103910000C210020FEF7D4F901210120FEF7B0F8B8
:1039200001210220FEF7ACF800210120FEF7A8F8E3
:1039300031210020FEF7C4F901210120FEF7A0F893
:1039400001210220FEF79CF800210120FEF798F8E3
:1039500036210020FEF7B4F901210120FEF790F88E
:1039600001210220FEF78CF800210120FEF788F8E3
:103970000F210020FEF7A4F901210120FEF780F8B5
:1039800000210220FEF77CF800210120FEF778F8E4
:1039900011210020FEF794F901210120FEF770F8B3
:1039A0007820FCF731FD00210220FEF769F80021A4
:1039B0000120FEF765F829210020FEF781F9012199
:1039C0000120FEF75DF800210220FEF759F80021E2
:1039D0000120FEF755F836210020FEF771F901218C
:1039E0000120FEF74DF801210220FEF749F80021E1
:1039F0000120FEF745F8E8210020FEF761F90121DA
:103A00000120FEF73DF8F82100208904FEF738F97F
:103A10000020FEF745F9044903F018FA01000348B5
:103A2000FDF75EFE012010BD40420F00C8E200100D
:103A300010B50348FDF754FEFFF73AFA10BDC04633
:103A4000E0E20010074B0360074B4360074B8360C5
:103A5000074BC360074B0361074B4361074B83610F
:103A600001207047313A0010B12E0010352D0010A2
:103A7000B92C0010C12C0010C52C0010D12C001046
:103A8000F0B5454657464E46DE460200E0B5080012
:103A900053781178FF221B020B435BBA9BB2190AC1
:103AA0001A405E23B0394B43A13A9B18334A9B001E
:103AB000D55A1F233249AA0A1A408C5C314E6A0932
:103AC0001A40B25C304E2B40F55C2100AA46A84655
:103AD000002D45D02D4BCC269B5C012C06D91039EE
:103AE0004D1EA941162602314E43A03628499D009D
:103AF000895CED18274B89469B46402159448C46EA
:103B000006300100AD002D19AF019619AD01DB198A
:103B10006D426744B601EA181C88925B0233224367
:103B20000A7001319F42F6D14346002B12D04B461A
:103B3000DA00D21A5B469200F832524492019B1886
:103B4000624414001A88017802330A43027001307B
:103B5000A342F7D1F0BCBB46B246A946A046F0BD91
:103B60000D4B9B5C012C06D910394D1EA941162620
:103B70004E43A036BAE7A026B8E7C046407E011003
:103B8000000B0110880B0110500B0110380B0110B5
:103B9000700B0110C00B0110200B0110F8B5DE46B0
:103BA00057464E4645463F24E0B50F0002788178DF
:103BB00012030C401443FC22437812019B01134072
:103BC0001C43A823DB019C466444A4B21C212000B2
:103BD00003F03CF983B218001521984603F036F93A
:103BE000384D80B22E5C1521404603F02FF9364B3C
:103BF00089B25B5C20009846344B1C21994603F047
:103C000025F94B4689B25B5C35009A469C46002BF1
:103C100048D042462E4B995CCC22012E06D9103D4D
:103C20006B1E9D41162202356A43A0324024A346F2
:103C300040468D006D182749274B59441B5C8B4625
:103C4000B81D0100AD00AD199946224BAE014244AA
:103C5000AD019B196D425E449701EA181C88D25B46
:103C6000023322430A7001319E42F6D16346002B93
:103C700012D04B46DA00D21A9200F832154B524459
:103C800092019C185A4417002288017802340A4392
:103C900002700130A742F7D1F0BCBB46B246A9463C
:103CA000A046F8BD42460D4B995C012E07D9330062
:103CB000103B5A1E934116225A43A032B6E7A02267
:103CC000B4E7C046C065011000660110E065011050
:103CD000380B0110C00B0110700B0110200B0110EC
:103CE00070B5202205000C00881D002104F04CF95D
:103CF0000023A3802B78002B46D00A2B44D05AB245
:103D0000002A15DA6A781B0412021343AA781343B7
:103D1000254A9446254A634493423BD80123A38015
:103D20000233280021006380FFF738FF01202AE0DA
:103D30000223A380013B63802A781D4B203AD2B234
:103D400002209201D1589B185A68A171E2719A68B9
:103D50002272DA6862721A69A2725A69E2729A6908
:103D60002273DA6962731A6AA2735A6AE2739A6AF0
:103D70002274DA6A62741A6BA2745A6BE2749A6BD8
:103D8000DB6B2275637570BD0423A380033B0420A5
:103D90006380F8E70123A3800133280021006380BA
:103DA000FFF76EFE0120EEE7804F15FF30EF0200B7
:103DB00020660110094A830094464022634410B5EE
:103DC0001C68C0006240C02414408022520113438A
:103DD0001C60034B9C466044416010BD04C0014020
:103DE000004001400A4B80009C46042360440029A7
:103DF00001D00C230821002A00D10B000268534097
:103E00000C221A4080235B01184302607047C046B1
:103E100004C00140064B80009C46604403684B4050
:103E20000121194080235B01184301607047C0469F
:103E300004C001400123D0228340120693629361A3
:103E4000094A83009446402263441968C0004A40EE
:103E5000C02111408022520113431960034B9C463C
:103E6000052360444360704704C0014000400140A6
:103E700070B5EFF3108C72B60D4D2B68002BFCD093
:103E8000BFF35F8F0724CB08C618C05C01230C402A
:103E9000A3401C000440034207D103433370BFF327
:103EA0005F8F2C608CF3108870BD100001F08CF8CF
:103EB0002C0100D0F8B54746CE46884680B5EFF3D2
:103EC000108C72B6214D2C68002CFCD0BFF35F8F94
:103ED0009A422CD8D4080727055D061901241740FB
:103EE000BC402C421FD007210127894609E0D40895
:103EF000055D06194C4639001440A1400C002942CA
:103F000011D001329342F2D201204042BFF35F8FC1
:103F100000220E4B1A608CF3108800280FDBC0BC07
:103F2000B946B046F8BD2C4310003470EEE7BFF33D
:103F30005F8F00232B608CF31088012040424346A2
:103F4000002BECD0089801F03FF8C0462C0100D0BF
:103F5000024B18688007C00F7047C04600C006407B
:103F60000021044B044ABFF35F8F02C39342FAD18E
:103F70007047C046000100D0800100D0044A10788C
:103F8000431CDBB2172B00D9102313707047C046B7
:103F90006406002000B5054B83B001000093182291
:103FA0001F230348FFF786FF03B000BDF8A20110EE
:103FB000009C022083680B4810B58446614462442B
:103FC000090112019A18591854684B6801209C4243
:103FD00001D802D00020C0B210BD12680B689A420E
:103FE000F9D8F7E7FFFFFF0F0A4B1968EFF31080CE
:103FF00072B60A68002AFCD0BFF35F8F1B68BFF35C
:104000005F8F00221A6080F3108840BF00200021DB
:104010007047C04660A60220F8B557464E46454652
:10402000DE46E0B599460CAB1C780DAB1B7806005C
:1040300090469A460768002C11D1BC7B002C42D0D8
:1040400065003B682D19033D59194B78BB73002B54
:1040500000D1FB7300238B704B700B7004E0650084
:104060003B682D19033D5919B2682A4B94464246C4
:10407000E3181B0163441A604A465A600A9A9A6020
:104080000B9ADA6000238B704B700B707B7B9B4626
:10409000002B2BD022005946B8687B6898473A68B5
:1040A000002816D05B4658465B005B445519033B1D
:1040B000A870D118D35C002B00D06B705B460C70DD
:1040C0007B73A34513D0F0BCBB46B246A946A046BD
:1040D000F8BD5B465B005B44033BD3189C705119F1
:1040E000525D002A00D05A705B460B707C734246CA
:1040F0004B46307D00F026FC051E06D05346002BB3
:1041000003D12100306800F073FE0E9B002BDAD043
:104110001D70D8E7FFFFFF0FF0B5DE464E4657464D
:1041200045460023E0B58DB00A936B4B8200D3580F
:104130000B90994600239B464B46079300F0A2FB49
:10414000079C06000F006268EFF3108572B61368D3
:10415000002BFCD022000794BFF35F8F2468637BA1
:104160009946002B67D092685C4B90464B441B01EC
:10417000984443461A685B6810001900801BB941D7
:1041800000295FDD0B9800F0DDFB00230026984638
:1041900000279A46079C6368BFF35F8F5A461A60F0
:1041A00085F310885346002B08D10028C6D10DB0E6
:1041B000F0BCBB46B246A946A046F0BD0A9B4146AC
:1041C00018024B461843D047089009916268EFF3F4
:1041D000108572B61368002BFCD00794BFF35F8F75
:1041E0000899099A002A48DB114303D0079B1B69F1
:1041F000002B5DD1079B1B68D97B002907D04A00A3
:10420000521819688C4649466244033A51704A462E
:10421000DA734B46079A013BD168CA5C0132CA5433
:104220005B46079A13615368BFF35F8F5A461A6063
:1042300085F3108882E700230026984600279A46D7
:104240000020A7E7002901D100289BD100212000F0
:1042500000F050FD43461E685F689B68079A9A46C7
:104260004346DB689846D3684B44013B1B780A936E
:104270001B020343136100208CE72369002BB9D094
:1042800033003C005B1A94411A002300A74219D85E
:104290009F421BD059460491012103914946029146
:1042A00041460191514607980091FFF7B5FEB7E7E7
:1042B00000F0E8FA089A099B06000F0092197B416A
:1042C0009942E5D901225242D317E3E79642E1D958
:1042D00001225242D317DDE744A50220FFFFFF0F62
:1042E000F8B557464E464546DE46E0B5404D814658
:1042F0008A466A68EFF3108872B61368002BFCD008
:10430000BFF35F8F2E68B47B002C39D06700336811
:104310003F19033FDB195A78B273002A00D1F273B8
:10432000A968344A8C464946A218120162441160B9
:1043300051465160304991600021D16099705970A7
:104340001970737B9B46002B35D022001900B06892
:10435000736898473268002820D05B4658465B0057
:104360005B44D719033BB870D118D35C002B00D045
:104370007B705B460C7073735C451DD0002626E095
:104380006B68BFF35F8F1C6088F310880120404288
:10439000F0BCBB46B246A946A046F8BD5B465B00F2
:1043A0005B44033BD3189C70D119D25D002A00D026
:1043B0005A705B460B7074734A465346287D00F072
:1043C000C1FA061EDAD02100286800F011FDEB6862
:1043D0001B19013B19786B68BFF35F8F00221A60CD
:1043E00088F310880020002ED2D108022043CFE7A6
:1043F00068060020FFFFFF0FE93F001010B5124CC8
:104400006368002B04D00A21104800F029FB10BD7E
:1044100023000F4A1021206800F08AFB032000F0DF
:1044200025FA032000F0FEFA03200A4900F044FABE
:10443000FFF7A4FD084B9C46032360442375074BFC
:1044400080006060DC60DEE76806002060A6022075
:10445000B53F0010194100104000003444A502206F
:104460000048704768060020F0B557464E4645465E
:10447000DE46E0B585B0019310AB1B7806000393D0
:1044800000239A46984600927268EFF3108972B63C
:104490001368002BFCD0BFF35F8F3568AC7B002C1A
:1044A00049D067002B683F19033FDB195A78AA737C
:1044B000002A00D1EA73B1684F4A8C4600980199EE
:1044C000A21812016244106051600E9991600F9918
:1044D000D16042469A705A701A706B7B9B46002BD3
:1044E00045D022001900A8686B6898472A68002800
:1044F00030D05B4658465B005B44D719033BB8702D
:10450000D118D35C002B00D07B705B460C706B73B2
:104510005C452DD0F3681B19013B18787368BFF315
:104520005F8F42461A6089F310885346002B2CD1C6
:104530000002204307E07368BFF35F8F1C6089F3BC
:1045400010880120404205B0F0BCBB46B246A946E7
:10455000A046F0BD5B465B005B44033BD3189C70F8
:10456000D119D25D002A00D05A705B460B706C7373
:10457000307D009A019B00F0E5F982460028C9D001
:104580002100306800F034FCC4E7039B002B30D0DE
:104590000E9B00200F999847030004000D000B4369
:1045A00027D000290DDA0098019902000B00121B98
:1045B000AB41994213D818D000920193039B9A46BD
:1045C00062E700F05FF902000B00A4185D4100945F
:1045D0000195A94203D8F1D100998A42EED901236D
:1045E0005B42DC1700930194E8E700999142E3D91C
:1045F000F5E70020A7E7C046FFFFFF0FF0B5040076
:104600000D0006267642F717C64636196F4100B5EB
:104610008F4213D810D000F035F932003B00121A47
:104620008B41002B14DC002B37D02900200000F038
:1046300033F980BCB846F0BD8642ECD9002600278D
:1046400000F020F932003B00121A8B41002BEADD0A
:1046500030003900FFF744FE0028E6DB00239846CF
:10466000BC460F4A0F4F7B6A9C4504D8B96A8E42FC
:10467000DBD99C45D9D11168EFF3108072B60B6875
:10468000002BFCD0BFF35F8F1368BFF35F8F4146F1
:10469000196080F3108820BFE5E7002AC5D0D7E76E
:1046A00060A602200040054070B5060000F0EAF860
:1046B000FA2204000D00002330000021920003F0D4
:1046C00003FB001969418D4205D802D0FFF796FF20
:1046D00070BD8442FAD901204042C117F6E7C046B6
:1046E000F8B5CE46474680B506000C00FFF7F8FD4A
:1046F00000280CDC2D4B0020596A8C4203D89B6AA1
:104700000130B34245D3C0BCB946B046F8BD20BF66
:10471000274D6A68EFF3108772B61368002BFCD040
:10472000BFF35F8F2B68C1B29C465B7B8B4235D059
:10473000FF2303405A00914662461268994490460E
:104740004A464244033A9278002A1DD0EA68000A99
:1047500090464344013B1B78C0B2834221D06B6832
:10476000BFF35F8F00221A6087F310880F4A002082
:10477000536A9C42C7D8926A0130B242C3D2E01A4F
:10478000421E9041C0B2BEE72B699842E7D12A6130
:10479000E5E7601A431E9841C0B2B4E7FF23034027
:1047A000D4E7604600F024FBD9E7C046004005404E
:1047B00068060020F0B5D6464F464646C0B5EFF332
:1047C00005833F22134018001038EFF3108C72B6A7
:1047D000204D2A68002AFCD0BFF35F8F0122110010
:1047E00081401D4C884661631C4917000E788A463B
:1047F0003100C1400F400A4209D1BFF35F8F2F60E3
:104800008CF31088E0BCBA46B146A846F0BD144906
:104810008200646A51588C420FD3124BD2584346DF
:104820009E4353461E70BFF35F8F00232B608CF3B3
:104830001088002AE6D09047E4E70B4A9B00904698
:1048400043441A681A60BFF35F8F00232B608CF318
:104850001088D7E7280100D000400540D5AA0220E3
:1048600084A60220F0920220D03F054010B501003E
:10487000024A0348FFF7FCFA10BDC04614A301101A
:10488000CBAA0220034B596A0A00986A596A8A42E5
:10489000FAD1704700400540064A536A9942FCD855
:1048A00007D1044B02E05A6A914202D19A6A8242CD
:1048B000F9D370470040054070B504000D00EFF3D8
:1048C000108672B61A4A1368002BFCD0BFF35F8FB4
:1048D000002D1BD0200000F013FD164981420AD0A4
:1048E000200000F015FD0121200000F0EFFC012365
:1048F000A340114A1360114BA400E550BFF35F8F32
:1049000000220B4B1A6086F3108870BD0B4BA2007F
:10491000D5500122A2400A4920000B7893430B7026
:10492000044900F01FFD0021200000F0CFFCE5E766
:10493000280100D0B547001038600540F0920220F1
:10494000D5AA0220F0B54F46D6464646C0B5070068
:104950002F4C616A0D00A66A616AA942FAD18B42A6
:1049600008D805D00120E0BCBA46B146A846F0BD43
:10497000B242F7D9EFF3108A72B6264801680029CF
:10498000FCD0BFF35F8F0125BD402349204C8846F2
:10499000097889462943C9B28C4641466046087069
:1049A000391D1E48890065630A51B9000B50216A00
:1049B0000020294219D0616A0800A66A616A814212
:1049C000FAD18B4219D801D1B24216D8CC451DD0AC
:1049D0000F4B1F201D625D6301230740BB40104A3F
:1049E0001E38136043464A461A70BFF35F8F002299
:1049F000084B1A608AF31088B5E70020BFF35F8F79
:104A00000022044B1A608AF31088ACE70120ECE71F
:104A100000400540280100D0D5AA022084A602202B
:104A200080E200E0EFF3108C72B60A490B68002BAD
:104A3000FCD0BFF35F8F01238340074A074813620E
:104A400002789A430270BFF35F8F00230B608CF3F0
:104A500010887047280100D000400540D5AA0220E8
:104A6000024B9C466144890001607047400000345D
:104A700010B50400FFF782FA01002000FFF7F0FFF5
:104A8000FF232371BFF35F8F10BDC04610B5040034
:104A9000FFF774FA01002000FFF7E2FFFF23A38075
:104AA000BFF35F8F10BDC04610B504000120FFF7B3
:104AB00071FA044B9C46604480002060BFF35F8F16
:104AC00010BDC0464000003470B50500140016004B
:104AD000002915D00C00002A12D080686B68984716
:104AE000296800280ED073009B196200033B12193D
:104AF000CB18033A9C7088188A5C002A15D106707E
:104B0000200070BD63001B197200033B9219CB1883
:104B1000033A9E7088188A5C002A02D1047034001F
:104B2000EEE75A7004703400EAE75A700670E7E75F
:104B300030B583600023CCB2437301330473426009
:104B40008373C4730D000068012C06D9421C013325
:104B5000DBB2137003329C42F9D1FF2129404B0094
:104B60005918002340180338437030BDF8B5CE46BD
:104B7000474606000C0080B5002907D04D000368A9
:104B80006D18033D5A195778002F04D12000C0BC7E
:104B9000B946B046F8BD7900C9190339884643447F
:104BA0005978894600215970517073683A00210084
:104BB000806898473368002814D042469A18947049
:104BC00059195B5D002B00D053700F7027004946C8
:104BD0003000FFF7CBFF390002003000FFF774FF11
:104BE0000400D3E7424641465D19AF709A185B5CFA
:104BF000002B00D06B701470E9E7C046F0B5574643
:104C00004546DE464E46E0B50D006B0001685B1977
:104C1000DF1E0400C85D83B00192CA1900284CD081
:104C200043001B18033BCB185E78B446002E16D108
:104C3000019E002E3ED0E67B002E04D073009B190F
:104C4000CB18033B5D70E57300282FD10023537010
:104C500003B0F0BCBB46B246A946A046F0BD720008
:104C60006244033A89184A78904600224A70914675
:104C70005A70010032002000FFF726FF43468246AB
:104C8000002B07D05B0021684344033BCB185A78C4
:104C9000002A16D1424651462000FFF715FF216831
:104CA000019BCA19002BC6D10028CFD043001B1886
:104CB000033BCB1800219970C8E7019B002BBAD1A8
:104CC000C4E75000801803380918487883464846DE
:104CD0004870587041462000FFF7F6FE594680465E
:104CE0002000FFF743FF414602002000FFF7ECFEE3
:104CF0008046CFE7F0B557464546DE464E46E0B51E
:104D000083B00191457B04006B0000685B19DF1ED6
:104D1000C15DC21900294ED04B005B18033BC3187C
:104D20005E78B446002E18D1019E002E40D0E67B5E
:104D3000002E04D073009B19C318033B5D70E5730C
:104D4000002931D1002328005370617303B0F0BCF7
:104D5000BB46B246A946A046F0BD72006244033A83
:104D60008018427890460022427091465A70200086
:104D70003200FFF7A9FE43468246002B07D05B00B6
:104D800021684344033BCB185A78002A17D1424686
:104D900051462000FFF798FE019B01002068C219D0
:104DA000002BC4D10029CDD04B005B18033BC318A6
:104DB00000209870C6E7019B002BB8D1C2E75000D5
:104DC0008018033809184878834648464870587058
:104DD00041462000FFF778FE594680462000FFF745
:104DE000C5FE414602002000FFF76EFE8046CEE77A
:104DF00070B5040000292CD0437B8B422ED005686F
:104E000048004018033828188278002A21D053001F
:104E10009B18033BEA5CEE188A4202D11BE0002A91
:104E200008D053009B18033BEB185A788A42F6D1FE
:104E300042785A7000230122837043702000FFF7EC
:104E4000DDFE617B02002000FFF73EFE6073012063
:104E500000E0002070BD43783370EBE701221900B9
:104E6000FFF7CCFE60730120F4E7C0462C4B2D4ABF
:104E700070B51A602C4A2D4B2D491A6014008B68AE
:104E80009C43FBD12B4D2C4EB54208D2013E761BE4
:104E9000B60808CD984723000134B342F9D100F099
:104EA000B1F8264A214B1A60214A9368DB43DB01A3
:104EB000DD09002BF9D14022214B224C224E9A676A
:104EC0005A671A67DA66B44208D223682000002BBA
:104ED00020D00834FFF7DAFDB442F6D31B4E1C4C49
:104EE000C022A168300003F055F8A660FFF738F83B
:104EF00000F06CFBFFF782FA164C174EB44208D252
:104F0000013E361BB60808CC98472B0001359E425F
:104F1000F9D170BD0834FFF7ABFDB442D5D3DDE75E
:104F200000E00040BFCDFBFEFE7F3C0000F00040F3
:104F300000C00040F810002008110020FFFFFF0112
:104F400000F00140F0100020F810002000000020C8
:104F500000ED00E00811002010110020094A0300B4
:104F60001068002805D00849C3188B4207D8136081
:104F7000704706480449C31810608B42F7D90120D6
:104F80004042F5E7FCA0022000000420D8AA02203D
:104F900000BEFDE710B50C0082B01900002A09D050
:104FA000064B0192009302002300054801F0B4FE75
:104FB00000BEFDE7034B1A00F3E7C04638A301101B
:104FC00048A30110E8E200100FB400B5084883B010
:104FD00003F016F9049B002B07D005A918000191D6
:104FE00001F0BAFE034803F00BF900BEFDE7C0462E
:104FF00078A301104CDF001010B50148FFF7E4FF63
:1050000088A3011030B50C2083B000F045FBFEF7FB
:105010009FFF00280ED0944B944A1A605A609A6001
:10502000DA601A615A619A61DA611A62904A5A62C8
:1050300003B030BD8F4CA06700F082FB01228E4B85
:105040001A60636C012BFCD103228C4B1A60894AD5
:10505000936B012BFCD102240121894A8948053335
:10506000009400F0C5FA0523874A0121874800947F
:1050700000F0BEFA864B5A68FF2A02D880225200FE
:105080005A608022784C7D4B21691201804D1A6054
:10509000002905D0606901F0D9FE01300138FDD149
:1050A000E0217B4B02201A681140802252012A43E2
:1050B00011601968484003210140116004219A6879
:1050C0001142FCD08022802192012A430901116003
:1050D000802252005A606F4B23616F4B5968FF2941
:1050E00000D85A600321644A6B4B116002399A68F8
:1050F0001142FCD0E0201A681040802252011A436D
:105100001060186848400321014002201160624984
:105110008A681042FCD0802292011343802212013F
:105120001A6080225D4B52004A6063615C4B596893
:10513000FF2900D85A6080225A4BE1691201584D6C
:105140001A60002905D0606901F080FE0130013845
:10515000FDD1E02252490B681A4080235B012B43AA
:105160001A60802380229B012B4312011A60802247
:105170003E4B52004A60E3614B4B5968FF2900D80F
:105180005A608022494B216A1201474D1A6000295A
:1051900005D0606901F05AFE01300138FDD1E022EE
:1051A00041490B681A4080235B012B431A6080231E
:1051B00080229B012B4312011A60802380225B0016
:1051C0004B602A4BD2022362394B5968914200D27C
:1051D0005A608022374B616A1201354D1A600029EE
:1051E00005D0606901F032FE01300138FDD1E022C6
:1051F0002F490B681A4080235B012B431A608023E0
:1052000080229B012B4312011A608023DB024B603A
:10521000174B6362284B5A68FF2A02D8802252003B
:105220005A608022254BA1691201234D1A60002982
:1052300005D0606901F00AFE01300138FDD1E0229D
:105240001D490B681A4080235B012B431A608023A1
:1052500080229B012B4312011A6080235B004B606C
:105260000E4BA361E4E6C04648A00220006CDC02BD
:105270001BB70000008000403CB0004030B0004050
:10528000002F68590080024000389C1C00C002407A
:1052900030800040001BB7003C800040405973073D
:1052A0005480004054B000406080004060B0004036
:1052B0006C8000406CB000404880004048B0004026
:1052C000014B8000C058704748A002200123834052
:1052D000002904D0034A1360034A13607047034A4D
:1052E0001360FBE780E200E000E100E080E100E025
:1052F00001238340014A13607047C04600E200E08A
:10530000024B10309B688000C058704700ED00E0F1
:1053100070B50D00EFF3108672B60F4A1368002BBC
:10532000FCD0BFF35F8F0D4B10309B6884001B597E
:105330000B4A934203D09D4201D0FFF75DFE074B1D
:105340009B681D51BFF35F8FBFF35F8F0022024B3D
:105350001A6086F3108870BD240100D000ED00E0D3
:10536000CD010010F0B5DE4657464E464546E0B545
:105370000C0083B0EFF3108A72B65A4A1368002B00
:10538000FCD0BFF35F8F1022914681444A46564BB2
:1053900096009B689D59554B98469D4205D0A54265
:1053A00016D0534FEB1B2F2B14D94F4B9B689D519D
:1053B000BFF35F8FBFF35F8F00224A4B1A608AF3FF
:1053C000108803B0F0BCBB46B246A946A046F0BD6B
:1053D0001D00EAE7012383409B465A46454B1B6864
:1053E0001A4000925A46444B1A60BFF35F8FFAF797
:1053F0003AFF0190002803D0814501D0FFF7FCFD62
:1054000001232A009A4313003C49DB1B5B415943AB
:10541000090D93689C4208D15AE043001B189B0079
:10542000FB189868A04211D01A00062010560028D8
:10543000F3DA009B002B05D05A46314B1A602D4BF6
:105440001A60B2E75A462C4B1A60AEE7062018568F
:10545000002821DB4200111889007C188846A168C9
:105460009960E179D97106216156997100291FDB94
:10547000A488F91A6405241544440919E02409058F
:10548000490D24022143998012181E4B9200BF1827
:105490001A781870BA71CCE7019800280BD1FF3048
:1054A000907119489080174A107811709871C0E770
:1054B000BD210902E7E7154A1549D21A083A5002F8
:1054C000400D01439980134952080A43DA80B0E73E
:1054D0000620105613000028BCDA019A002AEAD1EF
:1054E0004546E0E7240100D000ED00E0CD010010CA
:1054F0009006002000E100E080E100E0AAAA0000A0
:1055000080E200E0CCAA022000BDFFFFCA06002016
:1055100000F0FFFF00F8FFFFF8B501250400054388
:10552000FAF7A1FEEFF3108C72B6214A1368002B34
:10553000FCD0BFF35F8F1F4E2100B7681E4A1F4B80
:10554000891A49414B431B0D59B28300F858A842B0
:105550001CD00623D3568B421CD01223D3568B4229
:1055600022D01E23D3568B4220D02A23D356032089
:105570008B4210D0124B1A781970A271BFF35F8F53
:1055800000220B4B1A608CF31088F8BDB2680D48EE
:10559000D050EFE7002043001B189B00D218FF23D8
:1055A0009371094B9380E5E70120F4E70220F2E7CD
:1055B000240100D000ED00E090060020AAAA00001F
:1055C000CCAA0220CD01001000BDFFFF054B064A0A
:1055D0001360064A136053609360D3601361536194
:1055E000936170478080808000E400E004E400E084
:1055F000F0B5C646040000B50C2090461F000E0012
:1056000001F024FC4101091A8D01691AC900091829
:105610008901404601F01AFC069B3F041A032368E7
:105620001743002B22DB184B184DE21853425A4106
:1056300080235B019C461203154B62441A60154B94
:105640001A601100AB689943FBD1C022231D92015F
:105650001A4321232660A06013602368002BFCDA24
:105660000823E760136080BCB846F0BD3F23226882
:105670001340B342D7D1A3681B051B0D8342D2D17F
:10568000E368002FCFD1EEE70040FDBF00C000402F
:1056900000E0004000F000408023024A9B000343EA
:1056A000D36270470080054010B5140080221B4B68
:1056B000D2051A6000281AD00123194A1843194B41
:1056C000DA61194A42401A62596298628022134B89
:1056D000D2051A601549164A1160E022D2041A60F8
:1056E000002C07D18022134B12061A6010BD0D4BFF
:1056F000D861EBE763011B1B9A008023121912018A
:105700005B049A4200D30C4A0C4B1A60054B5A605A
:105710008022084BD2051A60E8E7C04600B0054079
:10572000D3C007B0008005402D3FF84FFCFF0100BB
:105730000820014000A00540FFFFFF0020A5022037
:10574000AA23064A1B0113602F230549D360054B8A
:1057500019605368002BFCDA7047C04600400240D5
:1057600000B0FA00006002409A4200D288547047AC
:105770007047C046F8B557464E464546DE46E0B54A
:1057800099460A9B07009A460D9B8846934615004A
:105790000B9E9B0710D10C9B9E420DD29D1B1400AB
:1057A0000E005D4422004B46013431002020B847F2
:1057B000A542F7D1B0460B9E002E27D0444675195E
:1057C0005346AA1B013E985D21004B46B847002E68
:1057D000F6D123002C0098460D9B9B070FD55B4606
:1057E000E51A0C9BAB420AD94646984622004B4626
:1057F000310020200135B8470134A845F6D82000F3
:10580000F0BCBB46B246A946A046F8BD2C00E3E773
:10581000F0B54F464646D646C0B584B098460EAB66
:105820001B78129F994694460D9C109B119EBA07B7
:1058300025D4002E4BD19C4200D3BFE001223A4038
:1058400092461F2C00D9B8E00C9A551E302201E078
:10585000202C03D001342A55A342F9D85246002AFD
:105860000DD0A6420BD9202C44D00C9A551E3022C4
:1058700001E0202C3ED001342A55B442F9D1FA0679
:105880004DD57A053FD4002C39D10F9B102B00D178
:1058900079E00F9B022B00D18AE030230C9A01247F
:1058A00013704B46002B3FD02D230C9A1355013417
:1058B0000C9B624600930397434602960194FFF7C0
:1058C00059FF04B0E0BCBA46B146A846F0BD01227B
:1058D00015003D40AA463A422FD04A46002A02D13E
:1058E0000C323A4200D0013E9C42BAD21F2CABD9B6
:1058F000202E27D92024FA06DAD57A0503D4A3422C
:105900002DD0A6422BD00F9B102B32D0022B20D0B3
:10591000202CCDD030220C9B1B191A700134202C66
:10592000C6D04B46002BBFD17B070DD43B07BFD55C
:1059300020230C9A13550134BAE79C429FD21F2CA6
:1059400000D881E720249AE72B230C9A13550134C1
:10595000AEE7202CACD00C9B1B1901343AE0631E3F
:10596000012C92D00F9A102A2AD0022A2FD01C0084
:10597000D0E7BB060ED4202C9AD00C9B1A19013408
:1059800078231370C4E7BB060DD478230C9A012446
:105990001370BFE7202C00D18AE758220C9B1B19FB
:1059A0001A700134B4E758230C9A01241370B1E73C
:1059B0000C9A603301241370ACE7202400265EE7C4
:1059C000023CBA06E9D40C9A12191C00D8E70C9ACA
:1059D0009246534462221A709AE7C04610B50028D6
:1059E00000D110BD02F0BCFBFBE7C046F0B5DE46BF
:1059F00057464E464546E0B59BB09B46249B89469C
:105A00009846259B0B900C924046424619009A46B8
:105A100001F0F5FC002800D0D8E0012240465146B4
:105A2000774B524201F0E6FC002800D0CEE0012284
:105A300040465146734B524201F0C6FC002800D04C
:105A4000C4E0002200234046514601F0BDFC00287E
:105A500000D0B9E1424653460A9209938023289A1E
:105A6000DB001A400E92289A1A4201D1062326938F
:105A70000A9A099B1600134300D0C7E0289B002513
:105A800000261B0500D49BE100230D93269A0D9B55
:105A90009A4200DC9FE1D01A431E26938023289A65
:105AA000DB001A430023002728920D93279B002434
:105AB000BB4200D9DC1B0223289A1A400E92289A76
:105AC000134203D07B427B415B421C400D9B002B69
:105AD00007D00A9809992A00330001F00CFC0A90BB
